{"abi":[{"type":"constructor","inputs":[{"name":"_treasury","type":"address","internalType":"address"},{"name":"_subscriptionId","type":"uint256","internalType":"uint256"}],"stateMutability":"nonpayable"},{"type":"function","name":"BASE_DIVIDER","inputs":[],"outputs":[{"name":"","type":"uint256","internalType":"uint256"}],"stateMutability":"view"},{"type":"function","name":"BURN_ADDRESS","inputs":[],"outputs":[{"name":"","type":"address","internalType":"address"}],"stateMutability":"view"},{"type":"function","name":"acceptOwnership","inputs":[],"outputs":[],"stateMutability":"nonpayable"},{"type":"function","name":"callbackGasLimit","inputs":[],"outputs":[{"name":"","type":"uint32","internalType":"uint32"}],"stateMutability":"view"},{"type":"function","name":"claimPayout","inputs":[{"name":"_poolId","type":"bytes32","internalType":"bytes32"}],"outputs":[],"stateMutability":"nonpayable"},{"type":"function","name":"cleanExpiredEmptyPools","inputs":[{"name":"max","type":"uint256","internalType":"uint256"}],"outputs":[],"stateMutability":"nonpayable"},{"type":"function","name":"createPool","inputs":[{"name":"_baseToken","type":"address","internalType":"address"},{"name":"_burnFee","type":"uint8","internalType":"uint8"},{"name":"_treasuryFee","type":"uint8","internalType":"uint8"},{"name":"_limitAmount","type":"uint256","internalType":"uint256"},{"name":"_ticketPrice","type":"uint256","internalType":"uint256"},{"name":"_poolType","type":"bool","internalType":"bool"}],"outputs":[{"name":"poolId","type":"bytes32","internalType":"bytes32"}],"stateMutability":"nonpayable"},{"type":"function","name":"enterPool","inputs":[{"name":"_poolId","type":"bytes32","internalType":"bytes32"},{"name":"_xpAmount","type":"uint256","internalType":"uint256"}],"outputs":[],"stateMutability":"nonpayable"},{"type":"function","name":"getAllPoolIds","inputs":[],"outputs":[{"name":"","type":"bytes32[]","internalType":"bytes32[]"}],"stateMutability":"view"},{"type":"function","name":"getPoolConfig","inputs":[{"name":"_poolId","type":"bytes32","internalType":"bytes32"}],"outputs":[{"name":"baseToken","type":"address","internalType":"address"},{"name":"burnFee","type":"uint8","internalType":"uint8"},{"name":"treasuryFee","type":"uint8","internalType":"uint8"},{"name":"limitAmount","type":"uint256","internalType":"uint256"},{"name":"ticketPrice","type":"uint256","internalType":"uint256"},{"name":"startTime","type":"uint256","internalType":"uint256"},{"name":"limitDuration","type":"uint256","internalType":"uint256"},{"name":"isActive","type":"bool","internalType":"bool"},{"name":"drawn","type":"bool","internalType":"bool"},{"name":"poolType","type":"bool","internalType":"bool"},{"name":"payoutClaimed","type":"bool","internalType":"bool"},{"name":"winnerAddress","type":"address","internalType":"address"}],"stateMutability":"view"},{"type":"function","name":"getPoolState","inputs":[{"name":"_poolId","type":"bytes32","internalType":"bytes32"}],"outputs":[{"name":"totalXpAmount","type":"uint256","internalType":"uint256"},{"name":"users","type":"tuple[]","internalType":"struct WavePrizePool.User[]","components":[{"name":"user","type":"address","internalType":"address"},{"name":"xpAmount","type":"uint256","internalType":"uint256"},{"name":"betTime","type":"uint256","internalType":"uint256"},{"name":"rewardAmount","type":"uint256","internalType":"uint256"}]},{"name":"winner","type":"tuple","internalType":"struct WavePrizePool.User","components":[{"name":"user","type":"address","internalType":"address"},{"name":"xpAmount","type":"uint256","internalType":"uint256"},{"name":"betTime","type":"uint256","internalType":"uint256"},{"name":"rewardAmount","type":"uint256","internalType":"uint256"}]}],"stateMutability":"view"},{"type":"function","name":"getRequestStatus","inputs":[{"name":"_requestId","type":"uint256","internalType":"uint256"}],"outputs":[{"name":"fulfilled","type":"bool","internalType":"bool"},{"name":"randomWords","type":"uint256[]","internalType":"uint256[]"}],"stateMutability":"view"},{"type":"function","name":"isVRF","inputs":[],"outputs":[{"name":"","type":"bool","internalType":"bool"}],"stateMutability":"view"},{"type":"function","name":"keyHash","inputs":[],"outputs":[{"name":"","type":"bytes32","internalType":"bytes32"}],"stateMutability":"view"},{"type":"function","name":"numWords","inputs":[],"outputs":[{"name":"","type":"uint32","internalType":"uint32"}],"stateMutability":"view"},{"type":"function","name":"owner","inputs":[],"outputs":[{"name":"","type":"address","internalType":"address"}],"stateMutability":"view"},{"type":"function","name":"pause","inputs":[],"outputs":[],"stateMutability":"nonpayable"},{"type":"function","name":"paused","inputs":[],"outputs":[{"name":"","type":"bool","internalType":"bool"}],"stateMutability":"view"},{"type":"function","name":"poolIdToRequestId","inputs":[{"name":"","type":"bytes32","internalType":"bytes32"}],"outputs":[{"name":"","type":"uint256","internalType":"uint256"}],"stateMutability":"view"},{"type":"function","name":"poolIds","inputs":[{"name":"","type":"uint256","internalType":"uint256"}],"outputs":[{"name":"","type":"bytes32","internalType":"bytes32"}],"stateMutability":"view"},{"type":"function","name":"poolIndex","inputs":[{"name":"","type":"bytes32","internalType":"bytes32"}],"outputs":[{"name":"","type":"uint256","internalType":"uint256"}],"stateMutability":"view"},{"type":"function","name":"rawFulfillRandomWords","inputs":[{"name":"requestId","type":"uint256","internalType":"uint256"},{"name":"randomWords","type":"uint256[]","internalType":"uint256[]"}],"outputs":[],"stateMutability":"nonpayable"},{"type":"function","name":"refreshStartTime","inputs":[{"name":"_poolId","type":"bytes32","internalType":"bytes32"}],"outputs":[],"stateMutability":"nonpayable"},{"type":"function","name":"refreshStartTimes","inputs":[{"name":"max","type":"uint256","internalType":"uint256"}],"outputs":[],"stateMutability":"nonpayable"},{"type":"function","name":"requestConfirmations","inputs":[],"outputs":[{"name":"","type":"uint16","internalType":"uint16"}],"stateMutability":"view"},{"type":"function","name":"requestIdToPoolId","inputs":[{"name":"","type":"uint256","internalType":"uint256"}],"outputs":[{"name":"","type":"bytes32","internalType":"bytes32"}],"stateMutability":"view"},{"type":"function","name":"requestIds","inputs":[{"name":"","type":"uint256","internalType":"uint256"}],"outputs":[{"name":"","type":"uint256","internalType":"uint256"}],"stateMutability":"view"},{"type":"function","name":"s_requests","inputs":[{"name":"","type":"uint256","internalType":"uint256"}],"outputs":[{"name":"fulfilled","type":"bool","internalType":"bool"},{"name":"exists","type":"bool","internalType":"bool"}],"stateMutability":"view"},{"type":"function","name":"s_subscriptionId","inputs":[],"outputs":[{"name":"","type":"uint256","internalType":"uint256"}],"stateMutability":"view"},{"type":"function","name":"s_vrfCoordinator","inputs":[],"outputs":[{"name":"","type":"address","internalType":"contract IVRFCoordinatorV2Plus"}],"stateMutability":"view"},{"type":"function","name":"setCallbackGasLimit","inputs":[{"name":"_limit","type":"uint32","internalType":"uint32"}],"outputs":[],"stateMutability":"nonpayable"},{"type":"function","name":"setCoordinator","inputs":[{"name":"_vrfCoordinator","type":"address","internalType":"address"}],"outputs":[],"stateMutability":"nonpayable"},{"type":"function","name":"setPoolData","inputs":[{"name":"_poolId","type":"bytes32","internalType":"bytes32"},{"name":"_baseToken","type":"address","internalType":"address"},{"name":"_burnFee","type":"uint8","internalType":"uint8"},{"name":"_treasuryFee","type":"uint8","internalType":"uint8"},{"name":"_limitAmount","type":"uint256","internalType":"uint256"},{"name":"_ticketPrice","type":"uint256","internalType":"uint256"},{"name":"_poolType","type":"bool","internalType":"bool"}],"outputs":[],"stateMutability":"nonpayable"},{"type":"function","name":"setTreasury","inputs":[{"name":"_treasury","type":"address","internalType":"address"}],"outputs":[],"stateMutability":"nonpayable"},{"type":"function","name":"setVRF","inputs":[],"outputs":[],"stateMutability":"nonpayable"},{"type":"function","name":"setVrfParams","inputs":[{"name":"_keyHash","type":"bytes32","internalType":"bytes32"},{"name":"_confirmations","type":"uint16","internalType":"uint16"},{"name":"_numWords","type":"uint32","internalType":"uint32"}],"outputs":[],"stateMutability":"nonpayable"},{"type":"function","name":"startPlay","inputs":[{"name":"_poolId","type":"bytes32","internalType":"bytes32"}],"outputs":[],"stateMutability":"nonpayable"},{"type":"function","name":"transferOwnership","inputs":[{"name":"to","type":"address","internalType":"address"}],"outputs":[],"stateMutability":"nonpayable"},{"type":"function","name":"treasury","inputs":[],"outputs":[{"name":"","type":"address","internalType":"address"}],"stateMutability":"view"},{"type":"function","name":"unpause","inputs":[],"outputs":[],"stateMutability":"nonpayable"},{"type":"function","name":"unsetVRF","inputs":[],"outputs":[],"stateMutability":"nonpayable"},{"type":"function","name":"userHistory","inputs":[{"name":"","type":"address","internalType":"address"},{"name":"","type":"uint256","internalType":"uint256"}],"outputs":[{"name":"user","type":"address","internalType":"address"},{"name":"xpAmount","type":"uint256","internalType":"uint256"},{"name":"betTime","type":"uint256","internalType":"uint256"},{"name":"rewardAmount","type":"uint256","internalType":"uint256"}],"stateMutability":"view"},{"type":"function","name":"withdraw","inputs":[{"name":"token_","type":"address","internalType":"address"},{"name":"amount","type":"uint256","internalType":"uint256"}],"outputs":[],"stateMutability":"nonpayable"},{"type":"event","name":"CoordinatorSet","inputs":[{"name":"vrfCoordinator","type":"address","indexed":false,"internalType":"address"}],"anonymous":false},{"type":"event","name":"EnteredPool","inputs":[{"name":"poolId","type":"bytes32","indexed":true,"internalType":"bytes32"},{"name":"user","type":"address","indexed":true,"internalType":"address"},{"name":"xpAmount","type":"uint256","indexed":false,"internalType":"uint256"}],"anonymous":false},{"type":"event","name":"FallbackRandomUsed","inputs":[{"name":"_poolId","type":"bytes32","indexed":true,"internalType":"bytes32"}],"anonymous":false},{"type":"event","name":"OwnershipTransferRequested","inputs":[{"name":"from","type":"address","indexed":true,"internalType":"address"},{"name":"to","type":"address","indexed":true,"internalType":"address"}],"anonymous":false},{"type":"event","name":"OwnershipTransferred","inputs":[{"name":"from","type":"address","indexed":true,"internalType":"address"},{"name":"to","type":"address","indexed":true,"internalType":"address"}],"anonymous":false},{"type":"event","name":"Paused","inputs":[{"name":"account","type":"address","indexed":false,"internalType":"address"}],"anonymous":false},{"type":"event","name":"PayoutClaimed","inputs":[{"name":"poolId","type":"bytes32","indexed":true,"internalType":"bytes32"},{"name":"winner","type":"address","indexed":true,"internalType":"address"},{"name":"amount","type":"uint256","indexed":false,"internalType":"uint256"},{"name":"poolType","type":"bool","indexed":false,"internalType":"bool"}],"anonymous":false},{"type":"event","name":"PlayStarted","inputs":[{"name":"_poolId","type":"bytes32","indexed":true,"internalType":"bytes32"}],"anonymous":false},{"type":"event","name":"PoolCreated","inputs":[{"name":"poolId","type":"bytes32","indexed":true,"internalType":"bytes32"},{"name":"baseToken","type":"address","indexed":false,"internalType":"address"},{"name":"limitAmount","type":"uint256","indexed":false,"internalType":"uint256"},{"name":"ticketPrice","type":"uint256","indexed":false,"internalType":"uint256"},{"name":"_poolType","type":"bool","indexed":false,"internalType":"bool"}],"anonymous":false},{"type":"event","name":"PoolDataUpdated","inputs":[{"name":"poolId","type":"bytes32","indexed":true,"internalType":"bytes32"},{"name":"burnFee","type":"uint8","indexed":false,"internalType":"uint8"},{"name":"treasuryFee","type":"uint8","indexed":false,"internalType":"uint8"},{"name":"limitAmount","type":"uint256","indexed":false,"internalType":"uint256"},{"name":"ticketPrice","type":"uint256","indexed":false,"internalType":"uint256"},{"name":"_poolType","type":"bool","indexed":false,"internalType":"bool"}],"anonymous":false},{"type":"event","name":"PoolDrawRequested","inputs":[{"name":"requestId","type":"uint256","indexed":true,"internalType":"uint256"},{"name":"poolId","type":"bytes32","indexed":true,"internalType":"bytes32"}],"anonymous":false},{"type":"event","name":"PoolEnded","inputs":[{"name":"poolId","type":"bytes32","indexed":true,"internalType":"bytes32"}],"anonymous":false},{"type":"event","name":"RequestFulfilled","inputs":[{"name":"requestId","type":"uint256","indexed":false,"internalType":"uint256"},{"name":"randomWords","type":"uint256[]","indexed":false,"internalType":"uint256[]"}],"anonymous":false},{"type":"event","name":"RequestSent","inputs":[{"name":"requestId","type":"uint256","indexed":false,"internalType":"uint256"},{"name":"numWords","type":"uint32","indexed":false,"internalType":"uint32"}],"anonymous":false},{"type":"event","name":"StartTimeUpdated","inputs":[{"name":"poolId","type":"bytes32","indexed":true,"internalType":"bytes32"},{"name":"oldStartTime","type":"uint256","indexed":false,"internalType":"uint256"},{"name":"newStartTime","type":"uint256","indexed":false,"internalType":"uint256"}],"anonymous":false},{"type":"event","name":"TreasuryUpdated","inputs":[{"name":"newTreasury","type":"address","indexed":false,"internalType":"address"}],"anonymous":false},{"type":"event","name":"Unpaused","inputs":[{"name":"account","type":"address","indexed":false,"internalType":"address"}],"anonymous":false},{"type":"event","name":"WinnerDrawn","inputs":[{"name":"poolId","type":"bytes32","indexed":true,"internalType":"bytes32"},{"name":"winner","type":"address","indexed":true,"internalType":"address"},{"name":"rewardAmount","type":"uint256","indexed":false,"internalType":"uint256"},{"name":"poolType","type":"bool","indexed":false,"internalType":"bool"}],"anonymous":false},{"type":"event","name":"Withdraw","inputs":[{"name":"token_","type":"address","indexed":false,"internalType":"address"},{"name":"sender","type":"address","indexed":false,"internalType":"address"},{"name":"amount","type":"uint256","indexed":false,"internalType":"uint256"}],"anonymous":false},{"type":"error","name":"AlreadyDrawn","inputs":[]},{"type":"error","name":"AlreadyPayoutClaimed","inputs":[]},{"type":"error","name":"AmountTooSmall","inputs":[]},{"type":"error","name":"BadTreasury","inputs":[]},{"type":"error","name":"CapExceeded","inputs":[]},{"type":"error","name":"CleanupNotAllowed","inputs":[]},{"type":"error","name":"DrawAlreadyRequested","inputs":[]},{"type":"error","name":"DrawNotRequested","inputs":[]},{"type":"error","name":"EnforcedPause","inputs":[]},{"type":"error","name":"ExpectedPause","inputs":[]},{"type":"error","name":"IndexOutOfBounds","inputs":[]},{"type":"error","name":"NoParticipants","inputs":[]},{"type":"error","name":"NotEmptyPool","inputs":[]},{"type":"error","name":"NotEnoughBalance","inputs":[]},{"type":"error","name":"NotTimeOut","inputs":[]},{"type":"error","name":"OnlyCoordinatorCanFulfill","inputs":[{"name":"have","type":"address","internalType":"address"},{"name":"want","type":"address","internalType":"address"}]},{"type":"error","name":"OnlyOwnerOrCoordinator","inputs":[{"name":"have","type":"address","internalType":"address"},{"name":"owner","type":"address","internalType":"address"},{"name":"coordinator","type":"address","internalType":"address"}]},{"type":"error","name":"PayoutNotClaimed","inputs":[]},{"type":"error","name":"PoolInactive","inputs":[]},{"type":"error","name":"PoolNotFound","inputs":[]},{"type":"error","name":"PoolTimeClosed","inputs":[]},{"type":"error","name":"ReentrancyGuardReentrantCall","inputs":[]},{"type":"error","name":"SafeERC20FailedOperation","inputs":[{"name":"token","type":"address","internalType":"address"}]},{"type":"error","name":"ZeroAddress","inputs":[]},{"type":"error","name":"ZeroAddressToken","inputs":[]}],"bytecode":{"object":"0x60806040527f787d74caea10b2b357790d5b5247c2f63d1d91572a9846f780606e4d953677ae5f1b600955620493e0600a5f6101000a81548163ffffffff021916908363ffffffff1602179055506003600a60046101000a81548161ffff021916908361ffff1602179055506001600a60066101000a81548163ffffffff021916908363ffffffff1602179055506001600c5f6101000a81548160ff0219169083151502179055503480156100b2575f5ffd5b50604051615c9a380380615c9a83398181016040528101906100d49190610536565b739ddfaca8183c41ad55329bdeed9f6a8d53168b1b33805f60015f819055505f73ffffffffffffffffffffffffffffffffffffffff168273ffffffffffffffffffffffffffffffffffffffff1603610161576040517f08c379a0000000000000000000000000000000000000000000000000000000008152600401610158906105ce565b60405180910390fd5b8160015f6101000a81548173ffffffffffffffffffffffffffffffffffffffff021916908373ffffffffffffffffffffffffffffffffffffffff1602179055505f73ffffffffffffffffffffffffffffffffffffffff168173ffffffffffffffffffffffffffffffffffffffff16146101e4576101e38161037960201b60201c565b5b5050505f73ffffffffffffffffffffffffffffffffffffffff168173ffffffffffffffffffffffffffffffffffffffff160361024c576040517fd92e233d00000000000000000000000000000000000000000000000000000000815260040160405180910390fd5b8060035f6101000a81548173ffffffffffffffffffffffffffffffffffffffff021916908373ffffffffffffffffffffffffffffffffffffffff160217905550505f73ffffffffffffffffffffffffffffffffffffffff168273ffffffffffffffffffffffffffffffffffffffff1614806102f4575061dead73ffffffffffffffffffffffffffffffffffffffff168273ffffffffffffffffffffffffffffffffffffffff16145b1561032b576040517f9718e70200000000000000000000000000000000000000000000000000000000815260040160405180910390fd5b8160045f6101000a81548173ffffffffffffffffffffffffffffffffffffffff021916908373ffffffffffffffffffffffffffffffffffffffff16021790555080600b819055505050610654565b3373ffffffffffffffffffffffffffffffffffffffff168173ffffffffffffffffffffffffffffffffffffffff16036103e7576040517f08c379a00000000000000000000000000000000000000000000000000000000081526004016103de90610636565b60405180910390fd5b8060025f6101000a81548173ffffffffffffffffffffffffffffffffffffffff021916908373ffffffffffffffffffffffffffffffffffffffff1602179055508073ffffffffffffffffffffffffffffffffffffffff1660015f9054906101000a900473ffffffffffffffffffffffffffffffffffffffff1673ffffffffffffffffffffffffffffffffffffffff167fed8889f560326eb138920d842192f0eb3dd22b4f139c87a2c57538e05bae127860405160405180910390a350565b5f5ffd5b5f73ffffffffffffffffffffffffffffffffffffffff82169050919050565b5f6104d2826104a9565b9050919050565b6104e2816104c8565b81146104ec575f5ffd5b50565b5f815190506104fd816104d9565b92915050565b5f819050919050565b61051581610503565b811461051f575f5ffd5b50565b5f815190506105308161050c565b92915050565b5f5f6040838503121561054c5761054b6104a5565b5b5f610559858286016104ef565b925050602061056a85828601610522565b9150509250929050565b5f82825260208201905092915050565b7f43616e6e6f7420736574206f776e657220746f207a65726f00000000000000005f82015250565b5f6105b8601883610574565b91506105c382610584565b602082019050919050565b5f6020820190508181035f8301526105e5816105ac565b9050919050565b7f43616e6e6f74207472616e7366657220746f2073656c660000000000000000005f82015250565b5f610620601783610574565b915061062b826105ec565b602082019050919050565b5f6020820190508181035f83015261064d81610614565b9050919050565b615639806106615f395ff3fe608060405234801561000f575f5ffd5b5060043610610267575f3560e01c80638ac000211161014f578063d595408a116100c1578063f0f4426011610085578063f0f442601461071f578063f19c3d5b1461073b578063f2fde38b14610759578063f3fef3a314610775578063fba2f44214610791578063fccc2813146107af57610267565b8063d595408a14610654578063d8a4676f14610686578063e74617a2146106b7578063e75ff1c9146106e7578063e8164bf01461070357610267565b8063a4eb718c11610113578063a4eb718c146105bc578063a680db40146105d8578063ad6829cf146105f4578063b0fb162f146105fe578063b4c634711461061c578063d17344411461063857610267565b80638ac00021146105155780638da5cb5b146105335780638ea98117146105515780639eccacf61461056d578063a168fa891461058b57610267565b80635c975abb116101e857806379ba5097116101ac57806379ba5097146104675780637b41612c146104715780637ccfd7fc1461048d5780638456cb59146104ab57806384a08400146104b55780638796ba8c146104e557610267565b80635c975abb146103c157806361728f39146103df57806361d027b3146103fd57806369883b4e1461041b5780636ca6ad171461044b57610267565b80631fe543e31161022f5780631fe543e31461031a57806322e8b9901461033657806324f74697146103695780633f426a06146103875780633f4ba83a146103b757610267565b8063037aadbe1461026b57806306559cf7146102a6578063139656cb146102b05780631543b38c146102ce5780631913feae146102fe575b5f5ffd5b610285600480360381019061028091906141f4565b6107cd565b60405161029d9c9b9a999897969594939291906142ab565b60405180910390f35b6102ae6108d7565b005b6102b86108fa565b6040516102c59190614363565b60405180910390f35b6102e860048036038101906102e39190614424565b6108ff565b6040516102f591906144bc565b60405180910390f35b610318600480360381019061031391906144d5565b610922565b005b610334600480360381019061032f9190614561565b610a0d565b005b610350600480360381019061034b91906145be565b610ad1565b60405161036094939291906145fc565b60405180910390f35b610371610b36565b60405161037e919061465d565b60405180910390f35b6103a1600480360381019061039c91906141f4565b610b4b565b6040516103ae9190614363565b60405180910390f35b6103bf610b60565b005b6103c9610b72565b6040516103d69190614676565b60405180910390f35b6103e7610b88565b6040516103f491906144bc565b60405180910390f35b610405610b8e565b604051610412919061468f565b60405180910390f35b610435600480360381019061043091906144d5565b610bb3565b60405161044291906144bc565b60405180910390f35b610465600480360381019061046091906146a8565b610bd3565b005b61046f611123565b005b61048b60048036038101906104869190614747565b6112b4565b005b610495611306565b6040516104a2919061465d565b60405180910390f35b6104b361131c565b005b6104cf60048036038101906104ca91906141f4565b61132e565b6040516104dc9190614363565b60405180910390f35b6104ff60048036038101906104fa91906144d5565b611343565b60405161050c9190614363565b60405180910390f35b61051d611363565b60405161052a9190614363565b60405180910390f35b61053b611369565b604051610548919061468f565b60405180910390f35b61056b60048036038101906105669190614797565b611391565b005b61057561156e565b604051610582919061481d565b60405180910390f35b6105a560048036038101906105a091906144d5565b611593565b6040516105b3929190614836565b60405180910390f35b6105d660048036038101906105d1919061485d565b6115cb565b005b6105f260048036038101906105ed91906144d5565b6115f6565b005b6105fc611712565b005b610606611736565b6040516106139190614897565b60405180910390f35b610636600480360381019061063191906141f4565b61174a565b005b610652600480360381019061064d91906141f4565b611b67565b005b61066e600480360381019061066991906141f4565b611dd0565b60405161067d93929190614a1c565b60405180910390f35b6106a0600480360381019061069b91906144d5565b611f4b565b6040516106ae929190614b00565b60405180910390f35b6106d160048036038101906106cc91906144d5565b612060565b6040516106de91906144bc565b60405180910390f35b61070160048036038101906106fc91906141f4565b612075565b005b61071d60048036038101906107189190614b2e565b612166565b005b61073960048036038101906107349190614797565b612382565b005b6107436124a2565b6040516107509190614c82565b60405180910390f35b610773600480360381019061076e9190614797565b6124f8565b005b61078f600480360381019061078a91906145be565b61250c565b005b6107996126a6565b6040516107a69190614676565b60405180910390f35b6107b76126b8565b6040516107c4919061468f565b60405180910390f35b5f5f5f5f5f5f5f5f5f5f5f5f5f6107e38e6126be565b509050806001015f9054906101000a900473ffffffffffffffffffffffffffffffffffffffff168160010160149054906101000a900460ff168260010160159054906101000a900460ff1683600301548460040154856005015486600601548760010160169054906101000a900460ff168860010160189054906101000a900460ff1689600c015f9054906101000a900460ff168a60010160199054906101000a900460ff168b6007015f015f9054906101000a900473ffffffffffffffffffffffffffffffffffffffff169c509c509c509c509c509c509c509c509c509c509c509c505091939597999b5091939597999b565b6108df61273a565b5f600c5f6101000a81548160ff021916908315150217905550565b606481565b5f61090861273a565b6109168787878787876127cb565b90509695505050505050565b61092a61273a565b5f5f90505f60078054905090505b5f8111801561094657508282105b15610a08578080600190039150505f6007828154811061096957610968614ca2565b5b905f5260205f2090600d020190508060010160169054906101000a900460ff16801561099b575061099981612ad1565b155b15610a02575f81600501549050428260050181905550815f01547f91dbf322e72bed8365018c0883043117ea1cb32551bd5011f930e53bfed306408284600501546040516109ea929190614ccf565b60405180910390a283806109fd90614d23565b945050505b50610938565b505050565b60035f9054906101000a900473ffffffffffffffffffffffffffffffffffffffff1673ffffffffffffffffffffffffffffffffffffffff163373ffffffffffffffffffffffffffffffffffffffff1614610ac1573360035f9054906101000a900473ffffffffffffffffffffffffffffffffffffffff166040517f1cf993f4000000000000000000000000000000000000000000000000000000008152600401610ab8929190614d6a565b60405180910390fd5b610acc838383612b00565b505050565b6008602052815f5260405f208181548110610aea575f80fd5b905f5260205f2090600402015f9150915050805f015f9054906101000a900473ffffffffffffffffffffffffffffffffffffffff16908060010154908060020154908060030154905084565b600a5f9054906101000a900463ffffffff1681565b600f602052805f5260405f205f915090505481565b610b6861273a565b610b70612e64565b565b5f600360149054906101000a900460ff16905090565b60095481565b60045f9054906101000a900473ffffffffffffffffffffffffffffffffffffffff1681565b60058181548110610bc2575f80fd5b905f5260205f20015f915090505481565b610bdb612ec6565b610be3612f07565b5f610bed836126be565b5090508060010160169054906101000a900460ff16610c38576040517f0f509b1100000000000000000000000000000000000000000000000000000000815260040160405180910390fd5b8060040154821015610c76576040517fc2f5625a00000000000000000000000000000000000000000000000000000000815260040160405180910390fd5b5f816006015414158015610c9d575080600601548160050154610c999190614d91565b4210155b15610cd4576040517f0606673e00000000000000000000000000000000000000000000000000000000815260040160405180910390fd5b80600b0160405180608001604052803373ffffffffffffffffffffffffffffffffffffffff1681526020018481526020014281526020015f815250908060018154018082558091505060019003905f5260205f2090600402015f909190919091505f820151815f015f6101000a81548173ffffffffffffffffffffffffffffffffffffffff021916908373ffffffffffffffffffffffffffffffffffffffff160217905550602082015181600101556040820151816002015560608201518160030155505060085f3373ffffffffffffffffffffffffffffffffffffffff1673ffffffffffffffffffffffffffffffffffffffff1681526020019081526020015f2081600b01600183600b0180549050610dee9190614dc4565b81548110610dff57610dfe614ca2565b5b905f5260205f209060040201908060018154018082558091505060019003905f5260205f2090600402015f909190919091505f82015f9054906101000a900473ffffffffffffffffffffffffffffffffffffffff16815f015f6101000a81548173ffffffffffffffffffffffffffffffffffffffff021916908373ffffffffffffffffffffffffffffffffffffffff160217905550600182015481600101556002820154816002015560038201548160030155505081816002015f828254610ec79190614d91565b92505081905550610f1e333084846001015f9054906101000a900473ffffffffffffffffffffffffffffffffffffffff1673ffffffffffffffffffffffffffffffffffffffff16612f4b909392919063ffffffff16565b3373ffffffffffffffffffffffffffffffffffffffff16837f2757cd0837826b91ef4363c56b439771a3671446ebb59b0846b7d2e1ae990f6a84604051610f659190614363565b60405180910390a38060010160179054906101000a900460ff16611116575f5f826003015414158015610fa057508160030154826002015410155b90505f5f836006015414158015610fca575082600601548360050154610fc69190614d91565b4210155b90508180610fd55750805b156111135760018360010160176101000a81548160ff0219169083151502179055505f8360010160166101000a81548160ff0219169083151502179055505f1515600c5f9054906101000a900460ff161515036110aa575f60014361103a9190614dc4565b4044423033604051602001611053959493929190614e7c565b604051602081830303815290604052805190602001205f1c9050857f98323e33bc986e61ec701a67f46e1071fcf7f175d531d954b28f705869cf69f660405160405180910390a26110a48682612fcd565b50611112565b5f6110b45f6132a7565b905085600e5f8381526020019081526020015f208190555080600f5f8881526020019081526020015f208190555085817f4fc4824e57d6533fcaf75f0fb22d5302deba8fe2e9c2ee9aae37ac10be6486fa60405160405180910390a3505b5b50505b5061111f61351a565b5050565b60025f9054906101000a900473ffffffffffffffffffffffffffffffffffffffff1673ffffffffffffffffffffffffffffffffffffffff163373ffffffffffffffffffffffffffffffffffffffff16146111b2576040517f08c379a00000000000000000000000000000000000000000000000000000000081526004016111a990614f34565b60405180910390fd5b5f60015f9054906101000a900473ffffffffffffffffffffffffffffffffffffffff1690503360015f6101000a81548173ffffffffffffffffffffffffffffffffffffffff021916908373ffffffffffffffffffffffffffffffffffffffff1602179055505f60025f6101000a81548173ffffffffffffffffffffffffffffffffffffffff021916908373ffffffffffffffffffffffffffffffffffffffff1602179055503373ffffffffffffffffffffffffffffffffffffffff168173ffffffffffffffffffffffffffffffffffffffff167f8be0079c531659141344cd1fd0a4f28419497f9722a3daafe3b4186f6b6457e060405160405180910390a350565b6112bc61273a565b8260098190555081600a60046101000a81548161ffff021916908361ffff16021790555080600a60066101000a81548163ffffffff021916908363ffffffff160217905550505050565b600a60069054906101000a900463ffffffff1681565b61132461273a565b61132c613523565b565b6006602052805f5260405f205f915090505481565b60108181548110611352575f80fd5b905f5260205f20015f915090505481565b600b5481565b5f60015f9054906101000a900473ffffffffffffffffffffffffffffffffffffffff16905090565b611399611369565b73ffffffffffffffffffffffffffffffffffffffff163373ffffffffffffffffffffffffffffffffffffffff1614158015611421575060035f9054906101000a900473ffffffffffffffffffffffffffffffffffffffff1673ffffffffffffffffffffffffffffffffffffffff163373ffffffffffffffffffffffffffffffffffffffff1614155b1561148f573361142f611369565b60035f9054906101000a900473ffffffffffffffffffffffffffffffffffffffff166040517f061db9c100000000000000000000000000000000000000000000000000000000815260040161148693929190614f52565b60405180910390fd5b5f73ffffffffffffffffffffffffffffffffffffffff168173ffffffffffffffffffffffffffffffffffffffff16036114f4576040517fd92e233d00000000000000000000000000000000000000000000000000000000815260040160405180910390fd5b8060035f6101000a81548173ffffffffffffffffffffffffffffffffffffffff021916908373ffffffffffffffffffffffffffffffffffffffff1602179055507fd1a6a14209a385a964d036e404cb5cfb71f4000cdb03c9366292430787261be681604051611563919061468f565b60405180910390a150565b60035f9054906101000a900473ffffffffffffffffffffffffffffffffffffffff1681565b600d602052805f5260405f205f91509050805f015f9054906101000a900460ff1690805f0160019054906101000a900460ff16905082565b6115d361273a565b80600a5f6101000a81548163ffffffff021916908363ffffffff16021790555050565b6115fe61273a565b5f5f90505f60078054905090505b5f8111801561161a57508282105b1561170d578080600190039150505f6007828154811061163d5761163c614ca2565b5b905f5260205f2090600d020190505f5f82600601541415801561167357508160060154826005015461166f9190614d91565b4210155b905080801561168857505f82600b0180549050145b15611706575f825f0154905061169d81613586565b82600b015f6116ac9190613f69565b826007015f5f82015f6101000a81549073ffffffffffffffffffffffffffffffffffffffff0219169055600182015f9055600282015f9055600382015f905550506116f684613620565b848061170190614d23565b955050505b505061160c565b505050565b61171a61273a565b6001600c5f6101000a81548160ff021916908315150217905550565b600a60049054906101000a900461ffff1681565b611752612f07565b5f5f61175d836126be565b915091508160010160189054906101000a900460ff166117a9576040517fefc9b43c00000000000000000000000000000000000000000000000000000000815260040160405180910390fd5b8160010160199054906101000a900460ff16156117f2576040517f19cc7f7000000000000000000000000000000000000000000000000000000000815260040160405180910390fd5b5f826001015f9054906101000a900473ffffffffffffffffffffffffffffffffffffffff1690505f8360010160149054906101000a900460ff1690505f8460010160159054906101000a900460ff1690505f856003015490505f866004015490505f87600c015f9054906101000a900460ff1690505f60648960010160149054906101000a900460ff1660ff168a6002015461188e9190614f87565b6118989190614ff5565b90505f60648a60010160159054906101000a900460ff1660ff168b600201546118c19190614f87565b6118cb9190614ff5565b90505f81838c600201546118df9190614dc4565b6118e99190614dc4565b905060018b60010160196101000a81548160ff02191690831515021790555061197b8b6007015f015f9054906101000a900473ffffffffffffffffffffffffffffffffffffffff16828d6001015f9054906101000a900473ffffffffffffffffffffffffffffffffffffffff1673ffffffffffffffffffffffffffffffffffffffff16613b0b9092919063ffffffff16565b5f8311156119d4576119d361dead848d6001015f9054906101000a900473ffffffffffffffffffffffffffffffffffffffff1673ffffffffffffffffffffffffffffffffffffffff16613b0b9092919063ffffffff16565b5b5f821115611a4c57611a4b60045f9054906101000a900473ffffffffffffffffffffffffffffffffffffffff16838d6001015f9054906101000a900473ffffffffffffffffffffffffffffffffffffffff1673ffffffffffffffffffffffffffffffffffffffff16613b0b9092919063ffffffff16565b5b8a6007015f015f9054906101000a900473ffffffffffffffffffffffffffffffffffffffff1673ffffffffffffffffffffffffffffffffffffffff168c7fb081356f90fadff6cad54801223d3df7956bde757f3e949bb98468e9a1073fd28387604051611aba929190615025565b60405180910390a3611acb8c613586565b8a600b015f611ada9190613f69565b8a6007015f5f82015f6101000a81549073ffffffffffffffffffffffffffffffffffffffff0219169055600182015f9055600282015f9055600382015f90555050611b248a613620565b8b7f22be93b6727a05bee16813a6dcacf70cb1589ad1ad185376d386ad466fb6406e60405160405180910390a25050505050505050505050611b6461351a565b50565b611b6f61273a565b5f611b79826126be565b5090505f81600b018054905003611bbc576040517f8b6a473000000000000000000000000000000000000000000000000000000000815260040160405180910390fd5b8060010160179054906101000a900460ff1615611c05576040517fbf08457d00000000000000000000000000000000000000000000000000000000815260040160405180910390fd5b5f5f826006015414158015611c2d575081600601548260050154611c299190614d91565b4210155b905080611c66576040517f60b8371a00000000000000000000000000000000000000000000000000000000815260040160405180910390fd5b60018260010160176101000a81548160ff0219169083151502179055505f8260010160166101000a81548160ff0219169083151502179055505f1515600c5f9054906101000a900460ff16151503611d36575f600143611cc69190614dc4565b4044423033604051602001611cdf959493929190614e7c565b604051602081830303815290604052805190602001205f1c9050837f98323e33bc986e61ec701a67f46e1071fcf7f175d531d954b28f705869cf69f660405160405180910390a2611d308482612fcd565b50611d9e565b5f611d405f6132a7565b905083600e5f8381526020019081526020015f208190555080600f5f8681526020019081526020015f208190555083817f4fc4824e57d6533fcaf75f0fb22d5302deba8fe2e9c2ee9aae37ac10be6486fa60405160405180910390a3505b827fed6b05017645dfa72e1be4aecd8bd2c6b38e31bc86051a5f1c40ed94981c4d2160405160405180910390a2505050565b5f6060611ddb613f8a565b5f611de5856126be565b509050806002015481600b018260070181805480602002602001604051908101604052809291908181526020015f905b82821015611eb7578382905f5260205f2090600402016040518060800160405290815f82015f9054906101000a900473ffffffffffffffffffffffffffffffffffffffff1673ffffffffffffffffffffffffffffffffffffffff1673ffffffffffffffffffffffffffffffffffffffff168152602001600182015481526020016002820154815260200160038201548152505081526020019060010190611e15565b505050509150806040518060800160405290815f82015f9054906101000a900473ffffffffffffffffffffffffffffffffffffffff1673ffffffffffffffffffffffffffffffffffffffff1673ffffffffffffffffffffffffffffffffffffffff16815260200160018201548152602001600282015481526020016003820154815250509050935093509350509193909250565b5f6060600d5f8481526020019081526020015f205f0160019054906101000a900460ff16611fa5576040517fefc9b43c00000000000000000000000000000000000000000000000000000000815260040160405180910390fd5b5f600d5f8581526020019081526020015f206040518060600160405290815f82015f9054906101000a900460ff161515151581526020015f820160019054906101000a900460ff161515151581526020016001820180548060200260200160405190810160405280929190818152602001828054801561204257602002820191905f5260205f20905b81548152602001906001019080831161202e575b5050505050815250509050805f015181604001519250925050915091565b600e602052805f5260405f205f915090505481565b61207d61273a565b5f612087826126be565b5090508060010160169054906101000a900460ff166120d2576040517f0f509b1100000000000000000000000000000000000000000000000000000000815260040160405180910390fd5b6120db81612ad1565b15612112576040517f0606673e00000000000000000000000000000000000000000000000000000000815260040160405180910390fd5b5f81600501549050428260050181905550827f91dbf322e72bed8365018c0883043117ea1cb32551bd5011f930e53bfed30640828460050154604051612159929190614ccf565b60405180910390a2505050565b61216e61273a565b5f612178886126be565b5090505f81600b0180549050146121bb576040517f3b7464b600000000000000000000000000000000000000000000000000000000815260040160405180910390fd5b606485876121c9919061504c565b60ff161115612204576040517f9718e70200000000000000000000000000000000000000000000000000000000815260040160405180910390fd5b5f73ffffffffffffffffffffffffffffffffffffffff168773ffffffffffffffffffffffffffffffffffffffff1603612269576040517f9718e70200000000000000000000000000000000000000000000000000000000815260040160405180910390fd5b86816001015f6101000a81548173ffffffffffffffffffffffffffffffffffffffff021916908373ffffffffffffffffffffffffffffffffffffffff160217905550858160010160146101000a81548160ff021916908360ff160217905550848160010160156101000a81548160ff021916908360ff1602179055508381600301819055508181600c015f6101000a81548160ff02191690831515021790555082816004018190555042816005018190555060018160010160166101000a81548160ff021916908315150217905550877faeeaf78aef223fd0470f9f7b28f19b9263e1e11f34e770396df1b52bc7e286258787878787604051612370959493929190615080565b60405180910390a25050505050505050565b61238a61273a565b5f73ffffffffffffffffffffffffffffffffffffffff168173ffffffffffffffffffffffffffffffffffffffff1614806123f1575061dead73ffffffffffffffffffffffffffffffffffffffff168173ffffffffffffffffffffffffffffffffffffffff16145b15612428576040517f9718e70200000000000000000000000000000000000000000000000000000000815260040160405180910390fd5b8060045f6101000a81548173ffffffffffffffffffffffffffffffffffffffff021916908373ffffffffffffffffffffffffffffffffffffffff1602179055507f7dae230f18360d76a040c81f050aa14eb9d6dc7901b20fc5d855e2a20fe814d181604051612497919061468f565b60405180910390a150565b606060058054806020026020016040519081016040528092919081815260200182805480156124ee57602002820191905f5260205f20905b8154815260200190600101908083116124da575b5050505050905090565b61250061273a565b61250981613b8a565b50565b61251461273a565b61251c612ec6565b5f73ffffffffffffffffffffffffffffffffffffffff168273ffffffffffffffffffffffffffffffffffffffff1603612581576040517f14f28f2b00000000000000000000000000000000000000000000000000000000815260040160405180910390fd5b5f8290505f8173ffffffffffffffffffffffffffffffffffffffff166370a08231306040518263ffffffff1660e01b81526004016125bf919061468f565b602060405180830381865afa1580156125da573d5f5f3e3d5ffd5b505050506040513d601f19601f820116820180604052508101906125fe91906150e5565b90508083111561263a576040517fad3a8b9e00000000000000000000000000000000000000000000000000000000815260040160405180910390fd5b61266533848473ffffffffffffffffffffffffffffffffffffffff16613b0b9092919063ffffffff16565b7f9b1bfa7fa9ee420a16e124f794c35ac9f90472acc99140eb2f6447c714cad8eb84338560405161269893929190615110565b60405180910390a150505050565b600c5f9054906101000a900460ff1681565b61dead81565b5f5f6126c983613cb6565b6126ff576040517f76ecffc000000000000000000000000000000000000000000000000000000000815260040160405180910390fd5b60065f8481526020019081526020015f205490506007818154811061272757612726614ca2565b5b905f5260205f2090600d02019150915091565b60015f9054906101000a900473ffffffffffffffffffffffffffffffffffffffff1673ffffffffffffffffffffffffffffffffffffffff163373ffffffffffffffffffffffffffffffffffffffff16146127c9576040517f08c379a00000000000000000000000000000000000000000000000000000000081526004016127c09061518f565b60405180910390fd5b565b5f606485876127da919061504c565b60ff161115612815576040517f9718e70200000000000000000000000000000000000000000000000000000000815260040160405180910390fd5b5f73ffffffffffffffffffffffffffffffffffffffff168773ffffffffffffffffffffffffffffffffffffffff160361287a576040517f9718e70200000000000000000000000000000000000000000000000000000000815260040160405180910390fd5b86838530426005805490508760405160200161289c97969594939291906151f2565b6040516020818303038152906040528051906020012090506128bd81613cb6565b156128f4576040517fbf08457d00000000000000000000000000000000000000000000000000000000815260040160405180910390fd5b600760018160018154018082558091505003905f5260205f209050505f600760016007805490506129259190614dc4565b8154811061293657612935614ca2565b5b905f5260205f2090600d0201905081815f018190555087816001015f6101000a81548173ffffffffffffffffffffffffffffffffffffffff021916908373ffffffffffffffffffffffffffffffffffffffff160217905550868160010160146101000a81548160ff021916908360ff160217905550858160010160156101000a81548160ff021916908360ff16021790555060018160010160166101000a81548160ff0219169083151502179055508481600301819055508281600c015f6101000a81548160ff02191690831515021790555083816004018190555042816005018190555082612a295762278d00612a2e565b620151805b62ffffff1681600601819055506001600780549050612a4d9190614dc4565b60065f8481526020019081526020015f2081905550600582908060018154018082558091505060019003905f5260205f20015f9091909190915055817fdc7ce6588c25bb539fac743c5f1a1cbb85b40ca79efad364077b701924f1cfbb89878787604051612abe9493929190615272565b60405180910390a2509695505050505050565b5f5f826006015414158015612af9575081600601548260050154612af59190614d91565b4210155b9050919050565b600d5f8481526020019081526020015f205f0160019054906101000a900460ff16612b57576040517fefc9b43c00000000000000000000000000000000000000000000000000000000815260040160405180910390fd5b6001600d5f8581526020019081526020015f205f015f6101000a81548160ff0219169083151502179055508181600d5f8681526020019081526020015f206001019190612ba5929190613fc4565b507ffe2e2d779dba245964d4e3ef9b994be63856fd568bf7d3ca9e224755cb1bd54d838383604051612bd99392919061531d565b60405180910390a15f600e5f8581526020019081526020015f205490505f612c00826126be565b5090508060010160179054906101000a900460ff161580612c2f57508060010160189054906101000a900460ff165b80612c4057505f81600b0180549050145b15612c4c575050612e5f565b5f81600b018054905085855f818110612c6857612c67614ca2565b5b90506020020135612c79919061534d565b90505f60648360010160149054906101000a900460ff1660ff168460020154612ca29190614f87565b612cac9190614ff5565b90505f60648460010160159054906101000a900460ff1660ff168560020154612cd59190614f87565b612cdf9190614ff5565b90505f81838660020154612cf39190614dc4565b612cfd9190614dc4565b905084600b018481548110612d1557612d14614ca2565b5b905f5260205f209060040201856007015f82015f9054906101000a900473ffffffffffffffffffffffffffffffffffffffff16815f015f6101000a81548173ffffffffffffffffffffffffffffffffffffffff021916908373ffffffffffffffffffffffffffffffffffffffff16021790555060018201548160010155600282015481600201556003820154816003015590505080856007016003018190555060018560010160186101000a81548160ff021916908315150217905550846007015f015f9054906101000a900473ffffffffffffffffffffffffffffffffffffffff1673ffffffffffffffffffffffffffffffffffffffff16867f4dc21597f4d155d1417b0f8b92dc07617a129d2f0685ecad6833a023f47373508388600c015f9054906101000a900460ff16604051612e50929190615025565b60405180910390a35050505050505b505050565b612e6c613d1d565b5f600360146101000a81548160ff0219169083151502179055507f5db9ee0a495bf2e6ff9c91a7834c1ba4fdd244a5e8aa4e537bd38aeae4b073aa612eaf613d5d565b604051612ebc919061468f565b60405180910390a1565b612ece610b72565b15612f05576040517fd93c066500000000000000000000000000000000000000000000000000000000815260040160405180910390fd5b565b60025f5403612f42576040517f3ee5aeb500000000000000000000000000000000000000000000000000000000815260040160405180910390fd5b60025f81905550565b612fc7848573ffffffffffffffffffffffffffffffffffffffff166323b872dd868686604051602401612f8093929190615110565b604051602081830303815290604052915060e01b6020820180517bffffffffffffffffffffffffffffffffffffffffffffffffffffffff8381831617835250505050613d64565b50505050565b5f612fd7836126be565b5090508060010160179054906101000a900460ff16613022576040517fefc9b43c00000000000000000000000000000000000000000000000000000000815260040160405180910390fd5b8060010160189054906101000a900460ff161561306b576040517f097e1d9b00000000000000000000000000000000000000000000000000000000815260040160405180910390fd5b5f81600b0180549050036130ab576040517f8b6a473000000000000000000000000000000000000000000000000000000000815260040160405180910390fd5b5f81600b0180549050836130bf919061534d565b90505f60648360010160149054906101000a900460ff1660ff1684600201546130e89190614f87565b6130f29190614ff5565b90505f60648460010160159054906101000a900460ff1660ff16856002015461311b9190614f87565b6131259190614ff5565b90505f818386600201546131399190614dc4565b6131439190614dc4565b905084600b01848154811061315b5761315a614ca2565b5b905f5260205f209060040201856007015f82015f9054906101000a900473ffffffffffffffffffffffffffffffffffffffff16815f015f6101000a81548173ffffffffffffffffffffffffffffffffffffffff021916908373ffffffffffffffffffffffffffffffffffffffff16021790555060018201548160010155600282015481600201556003820154816003015590505080856007016003018190555060018560010160186101000a81548160ff021916908315150217905550846007015f015f9054906101000a900473ffffffffffffffffffffffffffffffffffffffff1673ffffffffffffffffffffffffffffffffffffffff16877f4dc21597f4d155d1417b0f8b92dc07617a129d2f0685ecad6833a023f47373508388600c015f9054906101000a900460ff16604051613296929190615025565b60405180910390a350505050505050565b5f60035f9054906101000a900473ffffffffffffffffffffffffffffffffffffffff1673ffffffffffffffffffffffffffffffffffffffff16639b1c385e6040518060c001604052806009548152602001600b548152602001600a60049054906101000a900461ffff1661ffff168152602001600a5f9054906101000a900463ffffffff1663ffffffff168152602001600a60069054906101000a900463ffffffff1663ffffffff16815260200161336e6040518060200160405280881515815250613dff565b8152506040518263ffffffff1660e01b815260040161338d9190615491565b6020604051808303815f875af11580156133a9573d5f5f3e3d5ffd5b505050506040513d601f19601f820116820180604052508101906133cd91906150e5565b905060405180606001604052805f151581526020016001151581526020015f67ffffffffffffffff811115613405576134046154b1565b5b6040519080825280602002602001820160405280156134335781602001602082028036833780820191505090505b50815250600d5f8381526020019081526020015f205f820151815f015f6101000a81548160ff0219169083151502179055506020820151815f0160016101000a81548160ff02191690831515021790555060408201518160010190805190602001906134a092919061400f565b50905050601081908060018154018082558091505060019003905f5260205f20015f90919091909150557fcc58b13ad3eab50626c6a6300b1d139cd6ebb1688a7cced9461c2f7e762665ee81600a60069054906101000a900463ffffffff1660405161350d9291906154de565b60405180910390a1919050565b60015f81905550565b61352b612ec6565b6001600360146101000a81548160ff0219169083151502179055507f62e78cea01bee320cd4e420270b5ea74000d11b0c9f74754ebdbfc544b05a25861356f613d5d565b60405161357c919061468f565b60405180910390a1565b5f600f5f8381526020019081526020015f205490505f811461361c57600d5f8281526020019081526020015f205f5f82015f6101000a81549060ff02191690555f820160016101000a81549060ff0219169055600182015f6135e8919061405a565b5050600e5f8281526020019081526020015f205f905561360781613e97565b600f5f8381526020019081526020015f205f90555b5050565b5f6005828154811061363557613634614ca2565b5b905f5260205f20015490505f60016007805490506136539190614dc4565b905080831461397a57600781815481106136705761366f614ca2565b5b905f5260205f2090600d0201600784815481106136905761368f614ca2565b5b905f5260205f2090600d02015f820154815f0155600182015f9054906101000a900473ffffffffffffffffffffffffffffffffffffffff16816001015f6101000a81548173ffffffffffffffffffffffffffffffffffffffff021916908373ffffffffffffffffffffffffffffffffffffffff1602179055506001820160149054906101000a900460ff168160010160146101000a81548160ff021916908360ff1602179055506001820160159054906101000a900460ff168160010160156101000a81548160ff021916908360ff1602179055506001820160169054906101000a900460ff168160010160166101000a81548160ff0219169083151502179055506001820160179054906101000a900460ff168160010160176101000a81548160ff0219169083151502179055506001820160189054906101000a900460ff168160010160186101000a81548160ff0219169083151502179055506001820160199054906101000a900460ff168160010160196101000a81548160ff021916908315150217905550600282015481600201556003820154816003015560048201548160040155600582015481600501556006820154816006015560078201816007015f82015f9054906101000a900473ffffffffffffffffffffffffffffffffffffffff16815f015f6101000a81548173ffffffffffffffffffffffffffffffffffffffff021916908373ffffffffffffffffffffffffffffffffffffffff1602179055506001820154816001015560028201548160020155600382015481600301555050600b820181600b019080546138ec929190614078565b50600c82015f9054906101000a900460ff1681600c015f6101000a81548160ff0219169083151502179055509050505f600784815481106139305761392f614ca2565b5b905f5260205f2090600d02015f01549050806005858154811061395657613955614ca2565b5b905f5260205f2001819055508360065f8381526020019081526020015f2081905550505b600780548061398c5761398b615505565b5b600190038181905f5260205f2090600d02015f5f82015f9055600182015f6101000a81549073ffffffffffffffffffffffffffffffffffffffff02191690556001820160146101000a81549060ff02191690556001820160156101000a81549060ff02191690556001820160166101000a81549060ff02191690556001820160176101000a81549060ff02191690556001820160186101000a81549060ff02191690556001820160196101000a81549060ff0219169055600282015f9055600382015f9055600482015f9055600582015f9055600682015f9055600782015f5f82015f6101000a81549073ffffffffffffffffffffffffffffffffffffffff0219169055600182015f9055600282015f9055600382015f90555050600b82015f613ab69190613f69565b600c82015f6101000a81549060ff0219169055505090556005805480613adf57613ade615505565b5b600190038181905f5260205f20015f9055905560065f8381526020019081526020015f205f9055505050565b613b85838473ffffffffffffffffffffffffffffffffffffffff1663a9059cbb8585604051602401613b3e929190615532565b604051602081830303815290604052915060e01b6020820180517bffffffffffffffffffffffffffffffffffffffffffffffffffffffff8381831617835250505050613d64565b505050565b3373ffffffffffffffffffffffffffffffffffffffff168173ffffffffffffffffffffffffffffffffffffffff1603613bf8576040517f08c379a0000000000000000000000000000000000000000000000000000000008152600401613bef906155a3565b60405180910390fd5b8060025f6101000a81548173ffffffffffffffffffffffffffffffffffffffff021916908373ffffffffffffffffffffffffffffffffffffffff1602179055508073ffffffffffffffffffffffffffffffffffffffff1660015f9054906101000a900473ffffffffffffffffffffffffffffffffffffffff1673ffffffffffffffffffffffffffffffffffffffff167fed8889f560326eb138920d842192f0eb3dd22b4f139c87a2c57538e05bae127860405160405180910390a350565b5f5f60058054905003613ccb575f9050613d18565b5f60065f8481526020019081526020015f205490506005805490508110613cf5575f915050613d18565b8260058281548110613d0a57613d09614ca2565b5b905f5260205f200154149150505b919050565b613d25610b72565b613d5b576040517f8dfc202b00000000000000000000000000000000000000000000000000000000815260040160405180910390fd5b565b5f33905090565b5f5f60205f8451602086015f885af180613d83576040513d5f823e3d81fd5b3d92505f519150505f8214613d9c576001811415613db7565b5f8473ffffffffffffffffffffffffffffffffffffffff163b145b15613df957836040517f5274afe7000000000000000000000000000000000000000000000000000000008152600401613df0919061468f565b60405180910390fd5b50505050565b60607f92fd13387c7fe7befbc38d303d6468778fb9731bc4583f17d92989c6fcfdeaaa82604051602401613e3391906155ea565b604051602081830303815290604052907bffffffffffffffffffffffffffffffffffffffffffffffffffffffff19166020820180517bffffffffffffffffffffffffffffffffffffffffffffffffffffffff83818316178352505050509050919050565b5f60108054905090505f5f90505b81811015613f64578260108281548110613ec257613ec1614ca2565b5b905f5260205f20015403613f5757600182613edd9190614dc4565b8114613f2d576010600183613ef29190614dc4565b81548110613f0357613f02614ca2565b5b905f5260205f20015460108281548110613f2057613f1f614ca2565b5b905f5260205f2001819055505b6010805480613f3f57613f3e615505565b5b600190038181905f5260205f20015f90559055613f64565b8080600101915050613ea5565b505050565b5080545f8255600402905f5260205f2090810190613f87919061414d565b50565b60405180608001604052805f73ffffffffffffffffffffffffffffffffffffffff1681526020015f81526020015f81526020015f81525090565b828054828255905f5260205f20908101928215613ffe579160200282015b82811115613ffd578235825591602001919060010190613fe2565b5b50905061400b919061419e565b5090565b828054828255905f5260205f20908101928215614049579160200282015b8281111561404857825182559160200191906001019061402d565b5b509050614056919061419e565b5090565b5080545f8255905f5260205f2090810190614075919061419e565b50565b828054828255905f5260205f2090600402810192821561413c575f5260205f209160040282015b8281111561413b5782825f82015f9054906101000a900473ffffffffffffffffffffffffffffffffffffffff16815f015f6101000a81548173ffffffffffffffffffffffffffffffffffffffff021916908373ffffffffffffffffffffffffffffffffffffffff16021790555060018201548160010155600282015481600201556003820154816003015550509160040191906004019061409f565b5b509050614149919061414d565b5090565b5b8082111561419a575f5f82015f6101000a81549073ffffffffffffffffffffffffffffffffffffffff0219169055600182015f9055600282015f9055600382015f90555060040161414e565b5090565b5b808211156141b5575f815f90555060010161419f565b5090565b5f5ffd5b5f5ffd5b5f819050919050565b6141d3816141c1565b81146141dd575f5ffd5b50565b5f813590506141ee816141ca565b92915050565b5f60208284031215614209576142086141b9565b5b5f614216848285016141e0565b91505092915050565b5f73ffffffffffffffffffffffffffffffffffffffff82169050919050565b5f6142488261421f565b9050919050565b6142588161423e565b82525050565b5f60ff82169050919050565b6142738161425e565b82525050565b5f819050919050565b61428b81614279565b82525050565b5f8115159050919050565b6142a581614291565b82525050565b5f610180820190506142bf5f83018f61424f565b6142cc602083018e61426a565b6142d9604083018d61426a565b6142e6606083018c614282565b6142f3608083018b614282565b61430060a083018a614282565b61430d60c0830189614282565b61431a60e083018861429c565b61432861010083018761429c565b61433661012083018661429c565b61434461014083018561429c565b61435261016083018461424f565b9d9c50505050505050505050505050565b5f6020820190506143765f830184614282565b92915050565b6143858161423e565b811461438f575f5ffd5b50565b5f813590506143a08161437c565b92915050565b6143af8161425e565b81146143b9575f5ffd5b50565b5f813590506143ca816143a6565b92915050565b6143d981614279565b81146143e3575f5ffd5b50565b5f813590506143f4816143d0565b92915050565b61440381614291565b811461440d575f5ffd5b50565b5f8135905061441e816143fa565b92915050565b5f5f5f5f5f5f60c0878903121561443e5761443d6141b9565b5b5f61444b89828a01614392565b965050602061445c89828a016143bc565b955050604061446d89828a016143bc565b945050606061447e89828a016143e6565b935050608061448f89828a016143e6565b92505060a06144a089828a01614410565b9150509295509295509295565b6144b6816141c1565b82525050565b5f6020820190506144cf5f8301846144ad565b92915050565b5f602082840312156144ea576144e96141b9565b5b5f6144f7848285016143e6565b91505092915050565b5f5ffd5b5f5ffd5b5f5ffd5b5f5f83601f84011261452157614520614500565b5b8235905067ffffffffffffffff81111561453e5761453d614504565b5b60208301915083602082028301111561455a57614559614508565b5b9250929050565b5f5f5f60408486031215614578576145776141b9565b5b5f614585868287016143e6565b935050602084013567ffffffffffffffff8111156145a6576145a56141bd565b5b6145b28682870161450c565b92509250509250925092565b5f5f604083850312156145d4576145d36141b9565b5b5f6145e185828601614392565b92505060206145f2858286016143e6565b9150509250929050565b5f60808201905061460f5f83018761424f565b61461c6020830186614282565b6146296040830185614282565b6146366060830184614282565b95945050505050565b5f63ffffffff82169050919050565b6146578161463f565b82525050565b5f6020820190506146705f83018461464e565b92915050565b5f6020820190506146895f83018461429c565b92915050565b5f6020820190506146a25f83018461424f565b92915050565b5f5f604083850312156146be576146bd6141b9565b5b5f6146cb858286016141e0565b92505060206146dc858286016143e6565b9150509250929050565b5f61ffff82169050919050565b6146fc816146e6565b8114614706575f5ffd5b50565b5f81359050614717816146f3565b92915050565b6147268161463f565b8114614730575f5ffd5b50565b5f813590506147418161471d565b92915050565b5f5f5f6060848603121561475e5761475d6141b9565b5b5f61476b868287016141e0565b935050602061477c86828701614709565b925050604061478d86828701614733565b9150509250925092565b5f602082840312156147ac576147ab6141b9565b5b5f6147b984828501614392565b91505092915050565b5f819050919050565b5f6147e56147e06147db8461421f565b6147c2565b61421f565b9050919050565b5f6147f6826147cb565b9050919050565b5f614807826147ec565b9050919050565b614817816147fd565b82525050565b5f6020820190506148305f83018461480e565b92915050565b5f6040820190506148495f83018561429c565b614856602083018461429c565b9392505050565b5f60208284031215614872576148716141b9565b5b5f61487f84828501614733565b91505092915050565b614891816146e6565b82525050565b5f6020820190506148aa5f830184614888565b92915050565b5f81519050919050565b5f82825260208201905092915050565b5f819050602082019050919050565b6148e28161423e565b82525050565b6148f181614279565b82525050565b608082015f82015161490b5f8501826148d9565b50602082015161491e60208501826148e8565b50604082015161493160408501826148e8565b50606082015161494460608501826148e8565b50505050565b5f61495583836148f7565b60808301905092915050565b5f602082019050919050565b5f614977826148b0565b61498181856148ba565b935061498c836148ca565b805f5b838110156149bc5781516149a3888261494a565b97506149ae83614961565b92505060018101905061498f565b5085935050505092915050565b608082015f8201516149dd5f8501826148d9565b5060208201516149f060208501826148e8565b506040820151614a0360408501826148e8565b506060820151614a1660608501826148e8565b50505050565b5f60c082019050614a2f5f830186614282565b8181036020830152614a41818561496d565b9050614a5060408301846149c9565b949350505050565b5f81519050919050565b5f82825260208201905092915050565b5f819050602082019050919050565b5f614a8c83836148e8565b60208301905092915050565b5f602082019050919050565b5f614aae82614a58565b614ab88185614a62565b9350614ac383614a72565b805f5b83811015614af3578151614ada8882614a81565b9750614ae583614a98565b925050600181019050614ac6565b5085935050505092915050565b5f604082019050614b135f83018561429c565b8181036020830152614b258184614aa4565b90509392505050565b5f5f5f5f5f5f5f60e0888a031215614b4957614b486141b9565b5b5f614b568a828b016141e0565b9750506020614b678a828b01614392565b9650506040614b788a828b016143bc565b9550506060614b898a828b016143bc565b9450506080614b9a8a828b016143e6565b93505060a0614bab8a828b016143e6565b92505060c0614bbc8a828b01614410565b91505092959891949750929550565b5f81519050919050565b5f82825260208201905092915050565b5f819050602082019050919050565b614bfd816141c1565b82525050565b5f614c0e8383614bf4565b60208301905092915050565b5f602082019050919050565b5f614c3082614bcb565b614c3a8185614bd5565b9350614c4583614be5565b805f5b83811015614c75578151614c5c8882614c03565b9750614c6783614c1a565b925050600181019050614c48565b5085935050505092915050565b5f6020820190508181035f830152614c9a8184614c26565b905092915050565b7f4e487b71000000000000000000000000000000000000000000000000000000005f52603260045260245ffd5b5f604082019050614ce25f830185614282565b614cef6020830184614282565b9392505050565b7f4e487b71000000000000000000000000000000000000000000000000000000005f52601160045260245ffd5b5f614d2d82614279565b91507fffffffffffffffffffffffffffffffffffffffffffffffffffffffffffffffff8203614d5f57614d5e614cf6565b5b600182019050919050565b5f604082019050614d7d5f83018561424f565b614d8a602083018461424f565b9392505050565b5f614d9b82614279565b9150614da683614279565b9250828201905080821115614dbe57614dbd614cf6565b5b92915050565b5f614dce82614279565b9150614dd983614279565b9250828203905081811115614df157614df0614cf6565b5b92915050565b5f819050919050565b614e11614e0c826141c1565b614df7565b82525050565b5f819050919050565b614e31614e2c82614279565b614e17565b82525050565b5f8160601b9050919050565b5f614e4d82614e37565b9050919050565b5f614e5e82614e43565b9050919050565b614e76614e718261423e565b614e54565b82525050565b5f614e878288614e00565b602082019150614e978287614e20565b602082019150614ea78286614e20565b602082019150614eb78285614e65565b601482019150614ec78284614e65565b6014820191508190509695505050505050565b5f82825260208201905092915050565b7f4d7573742062652070726f706f736564206f776e6572000000000000000000005f82015250565b5f614f1e601683614eda565b9150614f2982614eea565b602082019050919050565b5f6020820190508181035f830152614f4b81614f12565b9050919050565b5f606082019050614f655f83018661424f565b614f72602083018561424f565b614f7f604083018461424f565b949350505050565b5f614f9182614279565b9150614f9c83614279565b9250828202614faa81614279565b91508282048414831517614fc157614fc0614cf6565b5b5092915050565b7f4e487b71000000000000000000000000000000000000000000000000000000005f52601260045260245ffd5b5f614fff82614279565b915061500a83614279565b92508261501a57615019614fc8565b5b828204905092915050565b5f6040820190506150385f830185614282565b615045602083018461429c565b9392505050565b5f6150568261425e565b91506150618361425e565b9250828201905060ff81111561507a57615079614cf6565b5b92915050565b5f60a0820190506150935f83018861426a565b6150a0602083018761426a565b6150ad6040830186614282565b6150ba6060830185614282565b6150c7608083018461429c565b9695505050505050565b5f815190506150df816143d0565b92915050565b5f602082840312156150fa576150f96141b9565b5b5f615107848285016150d1565b91505092915050565b5f6060820190506151235f83018661424f565b615130602083018561424f565b61513d6040830184614282565b949350505050565b7f4f6e6c792063616c6c61626c65206279206f776e6572000000000000000000005f82015250565b5f615179601683614eda565b915061518482615145565b602082019050919050565b5f6020820190508181035f8301526151a68161516d565b9050919050565b5f8160f81b9050919050565b5f6151c3826151ad565b9050919050565b5f6151d4826151b9565b9050919050565b6151ec6151e782614291565b6151ca565b82525050565b5f6151fd828a614e65565b60148201915061520d8289614e20565b60208201915061521d8288614e20565b60208201915061522d8287614e65565b60148201915061523d8286614e20565b60208201915061524d8285614e20565b60208201915061525d82846151db565b60018201915081905098975050505050505050565b5f6080820190506152855f83018761424f565b6152926020830186614282565b61529f6040830185614282565b6152ac606083018461429c565b95945050505050565b5f5ffd5b82818337505050565b5f6152cd8385614a62565b93507f07ffffffffffffffffffffffffffffffffffffffffffffffffffffffffffffff831115615300576152ff6152b5565b5b6020830292506153118385846152b9565b82840190509392505050565b5f6040820190506153305f830186614282565b81810360208301526153438184866152c2565b9050949350505050565b5f61535782614279565b915061536283614279565b92508261537257615371614fc8565b5b828206905092915050565b615386816146e6565b82525050565b6153958161463f565b82525050565b5f81519050919050565b5f82825260208201905092915050565b8281835e5f83830152505050565b5f601f19601f8301169050919050565b5f6153dd8261539b565b6153e781856153a5565b93506153f78185602086016153b5565b615400816153c3565b840191505092915050565b5f60c083015f8301516154205f860182614bf4565b50602083015161543360208601826148e8565b506040830151615446604086018261537d565b506060830151615459606086018261538c565b50608083015161546c608086018261538c565b5060a083015184820360a086015261548482826153d3565b9150508091505092915050565b5f6020820190508181035f8301526154a9818461540b565b905092915050565b7f4e487b71000000000000000000000000000000000000000000000000000000005f52604160045260245ffd5b5f6040820190506154f15f830185614282565b6154fe602083018461464e565b9392505050565b7f4e487b71000000000000000000000000000000000000000000000000000000005f52603160045260245ffd5b5f6040820190506155455f83018561424f565b6155526020830184614282565b9392505050565b7f43616e6e6f74207472616e7366657220746f2073656c660000000000000000005f82015250565b5f61558d601783614eda565b915061559882615559565b602082019050919050565b5f6020820190508181035f8301526155ba81615581565b9050919050565b6155ca81614291565b82525050565b602082015f8201516155e45f8501826155c1565b50505050565b5f6020820190506155fd5f8301846155d0565b9291505056fea2646970667358221220dcce5f16882b86a0b8f7bd4e99f3592332940b8c35d800102f55b27672f5b09064736f6c634300081e0033","linkReferences":{}},"methodIdentifiers":{"BASE_DIVIDER()":"139656cb","BURN_ADDRESS()":"fccc2813","acceptOwnership()":"79ba5097","callbackGasLimit()":"24f74697","claimPayout(bytes32)":"b4c63471","cleanExpiredEmptyPools(uint256)":"a680db40","createPool(address,uint8,uint8,uint256,uint256,bool)":"1543b38c","enterPool(bytes32,uint256)":"6ca6ad17","getAllPoolIds()":"f19c3d5b","getPoolConfig(bytes32)":"037aadbe","getPoolState(bytes32)":"d595408a","getRequestStatus(uint256)":"d8a4676f","isVRF()":"fba2f442","keyHash()":"61728f39","numWords()":"7ccfd7fc","owner()":"8da5cb5b","pause()":"8456cb59","paused()":"5c975abb","poolIdToRequestId(bytes32)":"3f426a06","poolIds(uint256)":"69883b4e","poolIndex(bytes32)":"84a08400","rawFulfillRandomWords(uint256,uint256[])":"1fe543e3","refreshStartTime(bytes32)":"e75ff1c9","refreshStartTimes(uint256)":"1913feae","requestConfirmations()":"b0fb162f","requestIdToPoolId(uint256)":"e74617a2","requestIds(uint256)":"8796ba8c","s_requests(uint256)":"a168fa89","s_subscriptionId()":"8ac00021","s_vrfCoordinator()":"9eccacf6","setCallbackGasLimit(uint32)":"a4eb718c","setCoordinator(address)":"8ea98117","setPoolData(bytes32,address,uint8,uint8,uint256,uint256,bool)":"e8164bf0","setTreasury(address)":"f0f44260","setVRF()":"ad6829cf","setVrfParams(bytes32,uint16,uint32)":"7b41612c","startPlay(bytes32)":"d1734441","transferOwnership(address)":"f2fde38b","treasury()":"61d027b3","unpause()":"3f4ba83a","unsetVRF()":"06559cf7","userHistory(address,uint256)":"22e8b990","withdraw(address,uint256)":"f3fef3a3"},"id":40}