{"abi":[{"type":"constructor","inputs":[{"name":"_treasury","type":"address","internalType":"address"},{"name":"subscriptionId","type":"uint256","internalType":"uint256"}],"stateMutability":"nonpayable"},{"type":"function","name":"acceptOwnership","inputs":[],"outputs":[],"stateMutability":"nonpayable"},{"type":"function","name":"allChallengeIds","inputs":[{"name":"","type":"uint256","internalType":"uint256"}],"outputs":[{"name":"","type":"bytes32","internalType":"bytes32"}],"stateMutability":"view"},{"type":"function","name":"allGameIds","inputs":[{"name":"","type":"uint256","internalType":"uint256"}],"outputs":[{"name":"","type":"bytes32","internalType":"bytes32"}],"stateMutability":"view"},{"type":"function","name":"allUserAddresses","inputs":[{"name":"","type":"uint256","internalType":"uint256"}],"outputs":[{"name":"","type":"address","internalType":"address"}],"stateMutability":"view"},{"type":"function","name":"baseDivider","inputs":[],"outputs":[{"name":"","type":"uint256","internalType":"uint256"}],"stateMutability":"view"},{"type":"function","name":"burnAddress","inputs":[],"outputs":[{"name":"","type":"address","internalType":"address"}],"stateMutability":"view"},{"type":"function","name":"callbackGasLimit","inputs":[],"outputs":[{"name":"","type":"uint32","internalType":"uint32"}],"stateMutability":"view"},{"type":"function","name":"cancelChallenge","inputs":[{"name":"_challengeId","type":"bytes32","internalType":"bytes32"}],"outputs":[],"stateMutability":"nonpayable"},{"type":"function","name":"challenges","inputs":[{"name":"","type":"bytes32","internalType":"bytes32"}],"outputs":[{"name":"challengeId","type":"bytes32","internalType":"bytes32"},{"name":"gameId","type":"bytes32","internalType":"bytes32"},{"name":"isActive","type":"bool","internalType":"bool"},{"name":"result","type":"bool","internalType":"bool"},{"name":"xpAmount","type":"uint256","internalType":"uint256"},{"name":"createTime","type":"uint256","internalType":"uint256"},{"name":"drawTime","type":"uint256","internalType":"uint256"},{"name":"creator","type":"tuple","internalType":"struct WaveChallengeFlip.User","components":[{"name":"userAddress","type":"address","internalType":"address"},{"name":"isCreator","type":"bool","internalType":"bool"},{"name":"side","type":"bool","internalType":"bool"},{"name":"challengeId","type":"bytes32","internalType":"bytes32"},{"name":"xpAmount","type":"uint256","internalType":"uint256"},{"name":"betTime","type":"uint256","internalType":"uint256"},{"name":"rewardAmount","type":"uint256","internalType":"uint256"}]},{"name":"challenger","type":"tuple","internalType":"struct WaveChallengeFlip.User","components":[{"name":"userAddress","type":"address","internalType":"address"},{"name":"isCreator","type":"bool","internalType":"bool"},{"name":"side","type":"bool","internalType":"bool"},{"name":"challengeId","type":"bytes32","internalType":"bytes32"},{"name":"xpAmount","type":"uint256","internalType":"uint256"},{"name":"betTime","type":"uint256","internalType":"uint256"},{"name":"rewardAmount","type":"uint256","internalType":"uint256"}]}],"stateMutability":"view"},{"type":"function","name":"claimPayout","inputs":[{"name":"_challengeId","type":"bytes32","internalType":"bytes32"}],"outputs":[],"stateMutability":"nonpayable"},{"type":"function","name":"createChallenge","inputs":[{"name":"_gameId","type":"bytes32","internalType":"bytes32"},{"name":"_xpAmount","type":"uint256","internalType":"uint256"},{"name":"_side","type":"bool","internalType":"bool"}],"outputs":[],"stateMutability":"nonpayable"},{"type":"function","name":"createGame","inputs":[{"name":"_baseToken","type":"address","internalType":"address"},{"name":"_burnFee","type":"uint8","internalType":"uint8"},{"name":"_treasuryFee","type":"uint8","internalType":"uint8"},{"name":"_minTokenAmount","type":"uint256","internalType":"uint256"}],"outputs":[],"stateMutability":"nonpayable"},{"type":"function","name":"enterChallenge","inputs":[{"name":"_challengeId","type":"bytes32","internalType":"bytes32"},{"name":"_xpAmount","type":"uint256","internalType":"uint256"},{"name":"_side","type":"bool","internalType":"bool"}],"outputs":[],"stateMutability":"nonpayable"},{"type":"function","name":"gamePools","inputs":[{"name":"","type":"bytes32","internalType":"bytes32"}],"outputs":[{"name":"baseToken","type":"address","internalType":"address"},{"name":"isActive","type":"bool","internalType":"bool"},{"name":"burnFee","type":"uint8","internalType":"uint8"},{"name":"treasuryFee","type":"uint8","internalType":"uint8"},{"name":"gameId","type":"bytes32","internalType":"bytes32"},{"name":"totalXpAmount","type":"uint256","internalType":"uint256"},{"name":"minTokenAmount","type":"uint256","internalType":"uint256"}],"stateMutability":"view"},{"type":"function","name":"getAllUserAddress","inputs":[],"outputs":[{"name":"len","type":"uint256","internalType":"uint256"},{"name":"addrs","type":"address[]","internalType":"address[]"}],"stateMutability":"view"},{"type":"function","name":"getChallengeIds","inputs":[],"outputs":[{"name":"len","type":"uint256","internalType":"uint256"},{"name":"ids","type":"bytes32[]","internalType":"bytes32[]"}],"stateMutability":"view"},{"type":"function","name":"getChallengeInfo","inputs":[{"name":"_challengeId","type":"bytes32","internalType":"bytes32"}],"outputs":[{"name":"","type":"bytes32","internalType":"bytes32"},{"name":"","type":"tuple","internalType":"struct WaveChallengeFlip.User","components":[{"name":"userAddress","type":"address","internalType":"address"},{"name":"isCreator","type":"bool","internalType":"bool"},{"name":"side","type":"bool","internalType":"bool"},{"name":"challengeId","type":"bytes32","internalType":"bytes32"},{"name":"xpAmount","type":"uint256","internalType":"uint256"},{"name":"betTime","type":"uint256","internalType":"uint256"},{"name":"rewardAmount","type":"uint256","internalType":"uint256"}]},{"name":"","type":"tuple","internalType":"struct WaveChallengeFlip.User","components":[{"name":"userAddress","type":"address","internalType":"address"},{"name":"isCreator","type":"bool","internalType":"bool"},{"name":"side","type":"bool","internalType":"bool"},{"name":"challengeId","type":"bytes32","internalType":"bytes32"},{"name":"xpAmount","type":"uint256","internalType":"uint256"},{"name":"betTime","type":"uint256","internalType":"uint256"},{"name":"rewardAmount","type":"uint256","internalType":"uint256"}]},{"name":"","type":"bool","internalType":"bool"},{"name":"","type":"bool","internalType":"bool"},{"name":"","type":"uint256","internalType":"uint256"},{"name":"","type":"uint256","internalType":"uint256"},{"name":"","type":"uint256","internalType":"uint256"}],"stateMutability":"view"},{"type":"function","name":"getGameIds","inputs":[],"outputs":[{"name":"len","type":"uint256","internalType":"uint256"},{"name":"ids","type":"bytes32[]","internalType":"bytes32[]"}],"stateMutability":"view"},{"type":"function","name":"getGameInfo","inputs":[{"name":"_gameId","type":"bytes32","internalType":"bytes32"}],"outputs":[{"name":"","type":"address","internalType":"address"},{"name":"","type":"uint8","internalType":"uint8"},{"name":"","type":"uint8","internalType":"uint8"},{"name":"","type":"uint256","internalType":"uint256"},{"name":"","type":"bytes32[]","internalType":"bytes32[]"},{"name":"","type":"uint256","internalType":"uint256"},{"name":"","type":"bool","internalType":"bool"}],"stateMutability":"view"},{"type":"function","name":"getUserHistory","inputs":[{"name":"_user","type":"address","internalType":"address"}],"outputs":[{"name":"","type":"bytes32[]","internalType":"bytes32[]"}],"stateMutability":"view"},{"type":"function","name":"isActiveChallengeId","inputs":[{"name":"","type":"bytes32","internalType":"bytes32"}],"outputs":[{"name":"","type":"bool","internalType":"bool"}],"stateMutability":"view"},{"type":"function","name":"isVRF","inputs":[],"outputs":[{"name":"","type":"bool","internalType":"bool"}],"stateMutability":"view"},{"type":"function","name":"keyHash","inputs":[],"outputs":[{"name":"","type":"bytes32","internalType":"bytes32"}],"stateMutability":"view"},{"type":"function","name":"linktoken","inputs":[],"outputs":[{"name":"","type":"address","internalType":"contract IERC20"}],"stateMutability":"view"},{"type":"function","name":"numWords","inputs":[],"outputs":[{"name":"","type":"uint32","internalType":"uint32"}],"stateMutability":"view"},{"type":"function","name":"owner","inputs":[],"outputs":[{"name":"","type":"address","internalType":"address"}],"stateMutability":"view"},{"type":"function","name":"pause","inputs":[],"outputs":[],"stateMutability":"nonpayable"},{"type":"function","name":"paused","inputs":[],"outputs":[{"name":"","type":"bool","internalType":"bool"}],"stateMutability":"view"},{"type":"function","name":"payouts","inputs":[{"name":"","type":"bytes32","internalType":"bytes32"}],"outputs":[{"name":"token","type":"address","internalType":"address"},{"name":"winner","type":"address","internalType":"address"},{"name":"claimed","type":"bool","internalType":"bool"},{"name":"winnerAmount","type":"uint256","internalType":"uint256"},{"name":"burnAmount","type":"uint256","internalType":"uint256"},{"name":"treasuryAmount","type":"uint256","internalType":"uint256"}],"stateMutability":"view"},{"type":"function","name":"rawFulfillRandomWords","inputs":[{"name":"requestId","type":"uint256","internalType":"uint256"},{"name":"randomWords","type":"uint256[]","internalType":"uint256[]"}],"outputs":[],"stateMutability":"nonpayable"},{"type":"function","name":"requestConfirmations","inputs":[],"outputs":[{"name":"","type":"uint16","internalType":"uint16"}],"stateMutability":"view"},{"type":"function","name":"s_subscriptionId","inputs":[],"outputs":[{"name":"","type":"uint256","internalType":"uint256"}],"stateMutability":"view"},{"type":"function","name":"s_vrfCoordinator","inputs":[],"outputs":[{"name":"","type":"address","internalType":"contract IVRFCoordinatorV2Plus"}],"stateMutability":"view"},{"type":"function","name":"setCoordinator","inputs":[{"name":"_vrfCoordinator","type":"address","internalType":"address"}],"outputs":[],"stateMutability":"nonpayable"},{"type":"function","name":"setGameData","inputs":[{"name":"_gameId","type":"bytes32","internalType":"bytes32"},{"name":"_burnFee","type":"uint8","internalType":"uint8"},{"name":"_treasuryFee","type":"uint8","internalType":"uint8"},{"name":"_minTokenAmount","type":"uint256","internalType":"uint256"}],"outputs":[],"stateMutability":"nonpayable"},{"type":"function","name":"setTreasury","inputs":[{"name":"_treasury","type":"address","internalType":"address"}],"outputs":[],"stateMutability":"nonpayable"},{"type":"function","name":"setVRF","inputs":[],"outputs":[],"stateMutability":"nonpayable"},{"type":"function","name":"transferOwnership","inputs":[{"name":"to","type":"address","internalType":"address"}],"outputs":[],"stateMutability":"nonpayable"},{"type":"function","name":"treasury","inputs":[],"outputs":[{"name":"","type":"address","internalType":"address"}],"stateMutability":"view"},{"type":"function","name":"unpause","inputs":[],"outputs":[],"stateMutability":"nonpayable"},{"type":"function","name":"unsetVRF","inputs":[],"outputs":[],"stateMutability":"nonpayable"},{"type":"function","name":"userHistory","inputs":[{"name":"","type":"address","internalType":"address"},{"name":"","type":"uint256","internalType":"uint256"}],"outputs":[{"name":"","type":"bytes32","internalType":"bytes32"}],"stateMutability":"view"},{"type":"function","name":"withdraw","inputs":[{"name":"token_","type":"address","internalType":"address"},{"name":"amount","type":"uint256","internalType":"uint256"}],"outputs":[],"stateMutability":"nonpayable"},{"type":"event","name":"ChallengeCancelled","inputs":[{"name":"challengeId","type":"bytes32","indexed":true,"internalType":"bytes32"},{"name":"creator","type":"address","indexed":true,"internalType":"address"}],"anonymous":false},{"type":"event","name":"ChallengeCreated","inputs":[{"name":"challengeId","type":"bytes32","indexed":true,"internalType":"bytes32"},{"name":"creator","type":"address","indexed":true,"internalType":"address"},{"name":"xpAmount","type":"uint256","indexed":false,"internalType":"uint256"}],"anonymous":false},{"type":"event","name":"ChallengeDrawRequested","inputs":[{"name":"requestId","type":"uint256","indexed":true,"internalType":"uint256"},{"name":"challengeId","type":"bytes32","indexed":true,"internalType":"bytes32"}],"anonymous":false},{"type":"event","name":"CoordinatorSet","inputs":[{"name":"vrfCoordinator","type":"address","indexed":false,"internalType":"address"}],"anonymous":false},{"type":"event","name":"EnteredChallenge","inputs":[{"name":"challengeId","type":"bytes32","indexed":true,"internalType":"bytes32"},{"name":"user","type":"address","indexed":true,"internalType":"address"},{"name":"xpAmount","type":"uint256","indexed":false,"internalType":"uint256"}],"anonymous":false},{"type":"event","name":"FallbackRandomUsed","inputs":[{"name":"challengeId","type":"bytes32","indexed":true,"internalType":"bytes32"}],"anonymous":false},{"type":"event","name":"GameCreated","inputs":[{"name":"gameId","type":"bytes32","indexed":true,"internalType":"bytes32"},{"name":"baseToken","type":"address","indexed":true,"internalType":"address"},{"name":"minTokenAmount","type":"uint256","indexed":false,"internalType":"uint256"}],"anonymous":false},{"type":"event","name":"GameDataUpdated","inputs":[{"name":"gameId","type":"bytes32","indexed":true,"internalType":"bytes32"},{"name":"burnFee","type":"uint8","indexed":false,"internalType":"uint8"},{"name":"treasuryFee","type":"uint8","indexed":false,"internalType":"uint8"},{"name":"minTokenAmount","type":"uint256","indexed":false,"internalType":"uint256"}],"anonymous":false},{"type":"event","name":"OwnershipTransferRequested","inputs":[{"name":"from","type":"address","indexed":true,"internalType":"address"},{"name":"to","type":"address","indexed":true,"internalType":"address"}],"anonymous":false},{"type":"event","name":"OwnershipTransferred","inputs":[{"name":"from","type":"address","indexed":true,"internalType":"address"},{"name":"to","type":"address","indexed":true,"internalType":"address"}],"anonymous":false},{"type":"event","name":"Paused","inputs":[{"name":"account","type":"address","indexed":false,"internalType":"address"}],"anonymous":false},{"type":"event","name":"PayoutClaimed","inputs":[{"name":"challengeId","type":"bytes32","indexed":true,"internalType":"bytes32"},{"name":"winner","type":"address","indexed":true,"internalType":"address"},{"name":"winnerAmount","type":"uint256","indexed":false,"internalType":"uint256"},{"name":"burnAmount","type":"uint256","indexed":false,"internalType":"uint256"},{"name":"treasuryAmount","type":"uint256","indexed":false,"internalType":"uint256"}],"anonymous":false},{"type":"event","name":"PayoutReady","inputs":[{"name":"challengeId","type":"bytes32","indexed":true,"internalType":"bytes32"},{"name":"winner","type":"address","indexed":true,"internalType":"address"},{"name":"token","type":"address","indexed":false,"internalType":"address"},{"name":"winnerAmount","type":"uint256","indexed":false,"internalType":"uint256"},{"name":"burnAmount","type":"uint256","indexed":false,"internalType":"uint256"},{"name":"treasuryAmount","type":"uint256","indexed":false,"internalType":"uint256"}],"anonymous":false},{"type":"event","name":"PoolEnded","inputs":[{"name":"gameId","type":"bytes32","indexed":true,"internalType":"bytes32"}],"anonymous":false},{"type":"event","name":"RequestFulfilled","inputs":[{"name":"requestId","type":"uint256","indexed":true,"internalType":"uint256"},{"name":"randomWords","type":"uint256[]","indexed":false,"internalType":"uint256[]"}],"anonymous":false},{"type":"event","name":"RequestSent","inputs":[{"name":"requestId","type":"uint256","indexed":true,"internalType":"uint256"},{"name":"numWords","type":"uint32","indexed":false,"internalType":"uint32"}],"anonymous":false},{"type":"event","name":"TreasuryUpdated","inputs":[{"name":"newTreasury","type":"address","indexed":false,"internalType":"address"}],"anonymous":false},{"type":"event","name":"Unpaused","inputs":[{"name":"account","type":"address","indexed":false,"internalType":"address"}],"anonymous":false},{"type":"event","name":"WinnerDrawn","inputs":[{"name":"challengeId","type":"bytes32","indexed":true,"internalType":"bytes32"},{"name":"player1","type":"address","indexed":false,"internalType":"address"},{"name":"player2","type":"address","indexed":false,"internalType":"address"},{"name":"wager","type":"uint256","indexed":false,"internalType":"uint256"},{"name":"result","type":"bool","indexed":false,"internalType":"bool"},{"name":"winner","type":"address","indexed":false,"internalType":"address"},{"name":"time","type":"uint256","indexed":false,"internalType":"uint256"},{"name":"reward","type":"uint256","indexed":false,"internalType":"uint256"}],"anonymous":false},{"type":"event","name":"Withdraw","inputs":[{"name":"token_","type":"address","indexed":false,"internalType":"address"},{"name":"sender","type":"address","indexed":false,"internalType":"address"},{"name":"amount","type":"uint256","indexed":false,"internalType":"uint256"}],"anonymous":false},{"type":"error","name":"AlreadyClaimed","inputs":[]},{"type":"error","name":"AlreadyUsed","inputs":[]},{"type":"error","name":"AmountMismatch","inputs":[]},{"type":"error","name":"AmountTooLow","inputs":[]},{"type":"error","name":"ChallengeEnded","inputs":[]},{"type":"error","name":"ChallengeInactive","inputs":[]},{"type":"error","name":"EnforcedPause","inputs":[]},{"type":"error","name":"ExpectedPause","inputs":[]},{"type":"error","name":"GameInactive","inputs":[]},{"type":"error","name":"InvalidFeeConfig","inputs":[]},{"type":"error","name":"InvalidTreasury","inputs":[]},{"type":"error","name":"NotCreator","inputs":[]},{"type":"error","name":"NotEnoughBalance","inputs":[]},{"type":"error","name":"NotWinner","inputs":[]},{"type":"error","name":"OnlyCoordinatorCanFulfill","inputs":[{"name":"have","type":"address","internalType":"address"},{"name":"want","type":"address","internalType":"address"}]},{"type":"error","name":"OnlyOwnerOrCoordinator","inputs":[{"name":"have","type":"address","internalType":"address"},{"name":"owner","type":"address","internalType":"address"},{"name":"coordinator","type":"address","internalType":"address"}]},{"type":"error","name":"PayoutNotReady","inputs":[]},{"type":"error","name":"ReentrancyGuardReentrantCall","inputs":[]},{"type":"error","name":"RequestNotFound","inputs":[]},{"type":"error","name":"SafeERC20FailedOperation","inputs":[{"name":"token","type":"address","internalType":"address"}]},{"type":"error","name":"SameSideSelected","inputs":[]},{"type":"error","name":"SelfChallenge","inputs":[]},{"type":"error","name":"ZeroAddress","inputs":[]},{"type":"error","name":"ZeroAddressToken","inputs":[]}],"bytecode":{"object":"0x60c06040526001600f60146101000a81548160ff02191690831515021790555034801561002a575f5ffd5b506040516158af3803806158af833981810160405281019061004c91906104c0565b739ddfaca8183c41ad55329bdeed9f6a8d53168b1b33805f600180819055505f73ffffffffffffffffffffffffffffffffffffffff168273ffffffffffffffffffffffffffffffffffffffff16036100d9576040517f08c379a00000000000000000000000000000000000000000000000000000000081526004016100d090610558565b60405180910390fd5b8160025f6101000a81548173ffffffffffffffffffffffffffffffffffffffff021916908373ffffffffffffffffffffffffffffffffffffffff1602179055505f73ffffffffffffffffffffffffffffffffffffffff168173ffffffffffffffffffffffffffffffffffffffff161461015c5761015b8161030360201b60201c565b5b5050505f73ffffffffffffffffffffffffffffffffffffffff168173ffffffffffffffffffffffffffffffffffffffff16036101c4576040517fd92e233d00000000000000000000000000000000000000000000000000000000815260040160405180910390fd5b8060045f6101000a81548173ffffffffffffffffffffffffffffffffffffffff021916908373ffffffffffffffffffffffffffffffffffffffff1602179055505061dead73ffffffffffffffffffffffffffffffffffffffff168273ffffffffffffffffffffffffffffffffffffffff160361026c576040517f14bcf5c800000000000000000000000000000000000000000000000000000000815260040160405180910390fd5b81600f5f6101000a81548173ffffffffffffffffffffffffffffffffffffffff021916908373ffffffffffffffffffffffffffffffffffffffff160217905550806080818152505073779877a7b0d9e8603169ddbd7836e478b462478973ffffffffffffffffffffffffffffffffffffffff1660a08173ffffffffffffffffffffffffffffffffffffffff168152505050506105de565b3373ffffffffffffffffffffffffffffffffffffffff168173ffffffffffffffffffffffffffffffffffffffff1603610371576040517f08c379a0000000000000000000000000000000000000000000000000000000008152600401610368906105c0565b60405180910390fd5b8060035f6101000a81548173ffffffffffffffffffffffffffffffffffffffff021916908373ffffffffffffffffffffffffffffffffffffffff1602179055508073ffffffffffffffffffffffffffffffffffffffff1660025f9054906101000a900473ffffffffffffffffffffffffffffffffffffffff1673ffffffffffffffffffffffffffffffffffffffff167fed8889f560326eb138920d842192f0eb3dd22b4f139c87a2c57538e05bae127860405160405180910390a350565b5f5ffd5b5f73ffffffffffffffffffffffffffffffffffffffff82169050919050565b5f61045c82610433565b9050919050565b61046c81610452565b8114610476575f5ffd5b50565b5f8151905061048781610463565b92915050565b5f819050919050565b61049f8161048d565b81146104a9575f5ffd5b50565b5f815190506104ba81610496565b92915050565b5f5f604083850312156104d6576104d561042f565b5b5f6104e385828601610479565b92505060206104f4858286016104ac565b9150509250929050565b5f82825260208201905092915050565b7f43616e6e6f7420736574206f776e657220746f207a65726f00000000000000005f82015250565b5f6105426018836104fe565b915061054d8261050e565b602082019050919050565b5f6020820190508181035f83015261056f81610536565b9050919050565b7f43616e6e6f74207472616e7366657220746f2073656c660000000000000000005f82015250565b5f6105aa6017836104fe565b91506105b582610576565b602082019050919050565b5f6020820190508181035f8301526105d78161059e565b9050919050565b60805160a0516152a96106065f395f61108201525f8181611996015261393201526152a95ff3fe608060405234801561000f575f5ffd5b5060043610610266575f3560e01c80637a5147751161014f578063b0fb162f116100c1578063e1b4db7111610085578063e1b4db7114610723578063ec018d6e14610741578063f0f4426014610771578063f2fde38b1461078d578063f3fef3a3146107a9578063fba2f442146107c557610266565b8063b0fb162f1461065f578063b2c553b21461067d578063b4c63471146106b3578063c1e69b66146106cf578063d526bb801461070757610266565b80638da5cb5b116101135780638da5cb5b146105a95780638ea98117146105c75780639eccacf6146105e35780639f668bba14610601578063ad6829cf14610620578063aeddb9051461062a57610266565b80637a514775146105105780637ccfd7fc146105475780637f205caa146105655780638456cb59146105815780638ac000211461058b57610266565b80633f4ba83a116101e85780635a5cfc1c116101ac5780635a5cfc1c1461045e5780635c975abb1461048e57806361728f39146104ac57806361d027b3146104ca57806370d5ae05146104e857806379ba50971461050657610266565b80633f4ba83a1461039f57806348696151146103a95780634fb3d3b1146103c85780635127953b146103f8578063520b35a21461042857610266565b8063149440d91161022f578063149440d9146102f85780631fe543e31461031757806322e8b9901461033357806324f74697146103635780632ae7543f1461038157610266565b80620476ba1461026a578063064436a11461028657806306559cf7146102a25780630f23a3c1146102ac57806312f8a6ab146102c8575b5f5ffd5b610284600480360381019061027f9190613f72565b6107e3565b005b6102a0600480360381019061029b9190613ff8565b610b8a565b005b6102aa610c7b565b005b6102c660048036038101906102c191906140b6565b610c9f565b005b6102e260048036038101906102dd919061411a565b610e53565b6040516102ef9190614154565b60405180910390f35b610300610e8e565b60405161030e929190614233565b60405180910390f35b610331600480360381019061032c91906142c2565b610f8a565b005b61034d6004803603810190610348919061431f565b61104e565b60405161035a919061436c565b60405180910390f35b61036b611079565b60405161037891906143a3565b60405180910390f35b610389611080565b6040516103969190614417565b60405180910390f35b6103a76110a4565b005b6103b16110b6565b6040516103bf9291906144e7565b60405180910390f35b6103e260048036038101906103dd9190614515565b611165565b6040516103ef9190614540565b60405180910390f35b610412600480360381019061040d919061411a565b6111f8565b60405161041f919061436c565b60405180910390f35b610442600480360381019061043d9190614560565b611218565b60405161045597969594939291906145a9565b60405180910390f35b6104786004803603810190610473919061411a565b611299565b604051610485919061436c565b60405180910390f35b6104966112b9565b6040516104a39190614616565b60405180910390f35b6104b46112cd565b6040516104c1919061436c565b60405180910390f35b6104d26112f3565b6040516104df9190614154565b60405180910390f35b6104f0611318565b6040516104fd9190614154565b60405180910390f35b61050e61131e565b005b61052a60048036038101906105259190614560565b6114af565b60405161053e9897969594939291906146d9565b60405180910390f35b61054f6116b0565b60405161055c91906143a3565b60405180910390f35b61057f600480360381019061057a9190614560565b6116b5565b005b610589611982565b005b610593611994565b6040516105a0919061475b565b60405180910390f35b6105b16119b8565b6040516105be9190614154565b60405180910390f35b6105e160048036038101906105dc9190614515565b6119e0565b005b6105eb611bbd565b6040516105f89190614794565b60405180910390f35b610609611be2565b6040516106179291906144e7565b60405180910390f35b610628611c91565b005b610644600480360381019061063f9190614560565b611cb6565b604051610656969594939291906147ad565b60405180910390f35b610667611d39565b6040516106749190614828565b60405180910390f35b61069760048036038101906106929190614560565b611d3e565b6040516106aa9796959493929190614841565b60405180910390f35b6106cd60048036038101906106c89190614560565b611e28565b005b6106e960048036038101906106e49190614560565b612656565b6040516106fe999897969594939291906148b5565b60405180910390f35b610721600480360381019061071c9190613f72565b61282d565b005b61072b612c85565b604051610738919061475b565b60405180910390f35b61075b60048036038101906107569190614560565b612c8a565b6040516107689190614616565b60405180910390f35b61078b60048036038101906107869190614515565b612ca7565b005b6107a760048036038101906107a29190614515565b612d98565b005b6107c360048036038101906107be919061431f565b612dac565b005b6107cd612f46565b6040516107da9190614616565b60405180910390f35b6107eb612f59565b6107f3612f9a565b5f60085f8581526020019081526020015f209050805f0160149054906101000a900460ff1661084e576040517fe76abfdd00000000000000000000000000000000000000000000000000000000815260040160405180910390fd5b806003015483101561088c576040517f1fbaba3500000000000000000000000000000000000000000000000000000000815260040160405180910390fd5b5f33426040516020016108a09291906149f9565b6040516020818303038152906040528051906020012090508060095f8381526020019081526020015f205f01819055508460095f8381526020019081526020015f2060010181905550600160095f8381526020019081526020015f206002015f6101000a81548160ff0219169083151502179055508360095f8381526020019081526020015f20600301819055504260095f8381526020019081526020015f20600401819055506040518060e001604052803373ffffffffffffffffffffffffffffffffffffffff16815260200160011515815260200184151581526020018281526020018581526020014281526020015f81525060095f8381526020019081526020015f206006015f820151815f015f6101000a81548173ffffffffffffffffffffffffffffffffffffffff021916908373ffffffffffffffffffffffffffffffffffffffff1602179055506020820151815f0160146101000a81548160ff0219169083151502179055506040820151815f0160156101000a81548160ff021916908315150217905550606082015181600101556080820151816002015560a0820151816003015560c082015181600401559050506001600b5f8381526020019081526020015f205f6101000a81548160ff021916908315150217905550600d81908060018154018082558091505060019003905f5260205f20015f909190919091505560085f8681526020019081526020015f2060040181908060018154018082558091505060019003905f5260205f20015f9091909190915055610b2c333086855f015f9054906101000a900473ffffffffffffffffffffffffffffffffffffffff1673ffffffffffffffffffffffffffffffffffffffff16612fe0909392919063ffffffff16565b3373ffffffffffffffffffffffffffffffffffffffff16817fd26ab04488ec637d788718439a7fb88013e8272c2ab9d9014cb0865365b054b386604051610b73919061475b565b60405180910390a35050610b85613062565b505050565b610b9261306b565b610b9a612f59565b60648284610ba89190614a5c565b60ff161115610be3576040517f5601467a00000000000000000000000000000000000000000000000000000000815260040160405180910390fd5b5f60085f8681526020019081526020015f20905083815f0160156101000a81548160ff021916908360ff16021790555082815f0160166101000a81548160ff021916908360ff160217905550818160030181905550847f2a101b7c888978a6e4c9ae65e40383f0b87c7b8ca2b87dde880c5076abe7d5e1858585604051610c6c93929190614a90565b60405180910390a25050505050565b610c8361306b565b5f600f60146101000a81548160ff021916908315150217905550565b610ca761306b565b60648284610cb59190614a5c565b60ff161115610cf0576040517f5601467a00000000000000000000000000000000000000000000000000000000815260040160405180910390fd5b5f3342604051602001610d04929190614b0f565b6040516020818303038152906040528051906020012090505f60085f8381526020019081526020015f20905085815f015f6101000a81548173ffffffffffffffffffffffffffffffffffffffff021916908373ffffffffffffffffffffffffffffffffffffffff16021790555081816001018190555084815f0160156101000a81548160ff021916908360ff16021790555083815f0160166101000a81548160ff021916908360ff1602179055508281600301819055506001815f0160146101000a81548160ff021916908315150217905550600c82908060018154018082558091505060019003905f5260205f20015f90919091909150558573ffffffffffffffffffffffffffffffffffffffff16827e06379582cf33f082958411b512c6d1b9888095de98bc1f9532e3f16533615285604051610e43919061475b565b60405180910390a3505050505050565b600e8181548110610e62575f80fd5b905f5260205f20015f915054906101000a900473ffffffffffffffffffffffffffffffffffffffff1681565b5f6060600e8054905091508167ffffffffffffffff811115610eb357610eb2614b45565b5b604051908082528060200260200182016040528015610ee15781602001602082028036833780820191505090505b5090505f5f90505b82811015610f8557600e8181548110610f0557610f04614b72565b5b905f5260205f20015f9054906101000a900473ffffffffffffffffffffffffffffffffffffffff16828281518110610f4057610f3f614b72565b5b602002602001019073ffffffffffffffffffffffffffffffffffffffff16908173ffffffffffffffffffffffffffffffffffffffff1681525050806001019050610ee9565b509091565b60045f9054906101000a900473ffffffffffffffffffffffffffffffffffffffff1673ffffffffffffffffffffffffffffffffffffffff163373ffffffffffffffffffffffffffffffffffffffff161461103e573360045f9054906101000a900473ffffffffffffffffffffffffffffffffffffffff166040517f1cf993f4000000000000000000000000000000000000000000000000000000008152600401611035929190614b9f565b60405180910390fd5b6110498383836130fc565b505050565b600a602052815f5260405f208181548110611067575f80fd5b905f5260205f20015f91509150505481565b620493e081565b7f000000000000000000000000000000000000000000000000000000000000000081565b6110ac61306b565b6110b46132aa565b565b5f6060600d8054905091508167ffffffffffffffff8111156110db576110da614b45565b5b6040519080825280602002602001820160405280156111095781602001602082028036833780820191505090505b5090505f5f90505b8281101561116057600d818154811061112d5761112c614b72565b5b905f5260205f20015482828151811061114957611148614b72565b5b602002602001018181525050806001019050611111565b509091565b6060600a5f8373ffffffffffffffffffffffffffffffffffffffff1673ffffffffffffffffffffffffffffffffffffffff1681526020019081526020015f208054806020026020016040519081016040528092919081815260200182805480156111ec57602002820191905f5260205f20905b8154815260200190600101908083116111d8575b50505050509050919050565b600d8181548110611207575f80fd5b905f5260205f20015f915090505481565b6008602052805f5260405f205f91509050805f015f9054906101000a900473ffffffffffffffffffffffffffffffffffffffff1690805f0160149054906101000a900460ff1690805f0160159054906101000a900460ff1690805f0160169054906101000a900460ff16908060010154908060020154908060030154905087565b600c81815481106112a8575f80fd5b905f5260205f20015f915090505481565b5f5f5f9054906101000a900460ff16905090565b7f787d74caea10b2b357790d5b5247c2f63d1d91572a9846f780606e4d953677ae5f1b81565b600f5f9054906101000a900473ffffffffffffffffffffffffffffffffffffffff1681565b61dead81565b60035f9054906101000a900473ffffffffffffffffffffffffffffffffffffffff1673ffffffffffffffffffffffffffffffffffffffff163373ffffffffffffffffffffffffffffffffffffffff16146113ad576040517f08c379a00000000000000000000000000000000000000000000000000000000081526004016113a490614c20565b60405180910390fd5b5f60025f9054906101000a900473ffffffffffffffffffffffffffffffffffffffff1690503360025f6101000a81548173ffffffffffffffffffffffffffffffffffffffff021916908373ffffffffffffffffffffffffffffffffffffffff1602179055505f60035f6101000a81548173ffffffffffffffffffffffffffffffffffffffff021916908373ffffffffffffffffffffffffffffffffffffffff1602179055503373ffffffffffffffffffffffffffffffffffffffff168173ffffffffffffffffffffffffffffffffffffffff167f8be0079c531659141344cd1fd0a4f28419497f9722a3daafe3b4186f6b6457e060405160405180910390a350565b5f6114b8613db0565b6114c0613db0565b5f5f5f5f5f5f60095f8b81526020019081526020015f20905080600101548160060182600b01836002015f9054906101000a900460ff168460020160019054906101000a900460ff16856004015486600501548760030154866040518060e00160405290815f82015f9054906101000a900473ffffffffffffffffffffffffffffffffffffffff1673ffffffffffffffffffffffffffffffffffffffff1673ffffffffffffffffffffffffffffffffffffffff1681526020015f820160149054906101000a900460ff161515151581526020015f820160159054906101000a900460ff161515151581526020016001820154815260200160028201548152602001600382015481526020016004820154815250509650856040518060e00160405290815f82015f9054906101000a900473ffffffffffffffffffffffffffffffffffffffff1673ffffffffffffffffffffffffffffffffffffffff1673ffffffffffffffffffffffffffffffffffffffff1681526020015f820160149054906101000a900460ff161515151581526020015f820160159054906101000a900460ff1615151515815260200160018201548152602001600282015481526020016003820154815260200160048201548152505095509850985098509850985098509850985050919395975091939597565b600181565b6116bd612f9a565b6116c5612f59565b5f60095f8381526020019081526020015f209050806002015f9054906101000a900460ff16611720576040517fab291b7e00000000000000000000000000000000000000000000000000000000815260040160405180910390fd5b3373ffffffffffffffffffffffffffffffffffffffff16816006015f015f9054906101000a900473ffffffffffffffffffffffffffffffffffffffff1673ffffffffffffffffffffffffffffffffffffffff16146117aa576040517f93687c0b00000000000000000000000000000000000000000000000000000000815260040160405180910390fd5b5f73ffffffffffffffffffffffffffffffffffffffff1681600b015f015f9054906101000a900473ffffffffffffffffffffffffffffffffffffffff1673ffffffffffffffffffffffffffffffffffffffff1614611834576040517f7b8c821000000000000000000000000000000000000000000000000000000000815260040160405180910390fd5b5f60085f836001015481526020019081526020015f2090506118c2826006015f015f9054906101000a900473ffffffffffffffffffffffffffffffffffffffff168360030154835f015f9054906101000a900473ffffffffffffffffffffffffffffffffffffffff1673ffffffffffffffffffffffffffffffffffffffff1661330a9092919063ffffffff16565b5f826002015f6101000a81548160ff0219169083151502179055505f600b5f8581526020019081526020015f205f6101000a81548160ff021916908315150217905550611910600d84613389565b61193160085f846001015481526020019081526020015f2060040184613389565b3373ffffffffffffffffffffffffffffffffffffffff16837f1090a8c99117fe8b8df73409cd9d66aa12ca68d21bc581873e30586c199713f860405160405180910390a3505061197f613062565b50565b61198a61306b565b611992613443565b565b7f000000000000000000000000000000000000000000000000000000000000000081565b5f60025f9054906101000a900473ffffffffffffffffffffffffffffffffffffffff16905090565b6119e86119b8565b73ffffffffffffffffffffffffffffffffffffffff163373ffffffffffffffffffffffffffffffffffffffff1614158015611a70575060045f9054906101000a900473ffffffffffffffffffffffffffffffffffffffff1673ffffffffffffffffffffffffffffffffffffffff163373ffffffffffffffffffffffffffffffffffffffff1614155b15611ade5733611a7e6119b8565b60045f9054906101000a900473ffffffffffffffffffffffffffffffffffffffff166040517f061db9c1000000000000000000000000000000000000000000000000000000008152600401611ad593929190614c3e565b60405180910390fd5b5f73ffffffffffffffffffffffffffffffffffffffff168173ffffffffffffffffffffffffffffffffffffffff1603611b43576040517fd92e233d00000000000000000000000000000000000000000000000000000000815260040160405180910390fd5b8060045f6101000a81548173ffffffffffffffffffffffffffffffffffffffff021916908373ffffffffffffffffffffffffffffffffffffffff1602179055507fd1a6a14209a385a964d036e404cb5cfb71f4000cdb03c9366292430787261be681604051611bb29190614154565b60405180910390a150565b60045f9054906101000a900473ffffffffffffffffffffffffffffffffffffffff1681565b5f6060600c8054905091508167ffffffffffffffff811115611c0757611c06614b45565b5b604051908082528060200260200182016040528015611c355781602001602082028036833780820191505090505b5090505f5f90505b82811015611c8c57600c8181548110611c5957611c58614b72565b5b905f5260205f200154828281518110611c7557611c74614b72565b5b602002602001018181525050806001019050611c3d565b509091565b611c9961306b565b6001600f60146101000a81548160ff021916908315150217905550565b6005602052805f5260405f205f91509050805f015f9054906101000a900473ffffffffffffffffffffffffffffffffffffffff1690806001015f9054906101000a900473ffffffffffffffffffffffffffffffffffffffff16908060010160149054906101000a900460ff16908060020154908060030154908060040154905086565b600381565b5f5f5f5f60605f5f5f60085f8a81526020019081526020015f209050805f015f9054906101000a900473ffffffffffffffffffffffffffffffffffffffff16815f0160159054906101000a900460ff16825f0160169054906101000a900460ff168360020154846004018560030154865f0160149054906101000a900460ff1682805480602002602001604051908101604052809291908181526020018280548015611e0757602002820191905f5260205f20905b815481526020019060010190808311611df3575b50505050509250975097509750975097509750975050919395979092949650565b611e30612f9a565b611e38612f59565b5f60095f8381526020019081526020015f2090505f60055f8481526020019081526020015f209050816002015f9054906101000a900460ff1615611ea8576040517fab291b7e00000000000000000000000000000000000000000000000000000000815260040160405180910390fd5b5f73ffffffffffffffffffffffffffffffffffffffff16816001015f9054906101000a900473ffffffffffffffffffffffffffffffffffffffff1673ffffffffffffffffffffffffffffffffffffffff1603611f30576040517f8662cc3600000000000000000000000000000000000000000000000000000000815260040160405180910390fd5b8060010160149054906101000a900460ff1615611f79576040517f646cf55800000000000000000000000000000000000000000000000000000000815260040160405180910390fd5b806001015f9054906101000a900473ffffffffffffffffffffffffffffffffffffffff1673ffffffffffffffffffffffffffffffffffffffff163373ffffffffffffffffffffffffffffffffffffffff1614612001576040517f618c724200000000000000000000000000000000000000000000000000000000815260040160405180910390fd5b5f815f015f9054906101000a900473ffffffffffffffffffffffffffffffffffffffff16905061205861dead83600301548373ffffffffffffffffffffffffffffffffffffffff1661330a9092919063ffffffff16565b6120a8600f5f9054906101000a900473ffffffffffffffffffffffffffffffffffffffff1683600401548373ffffffffffffffffffffffffffffffffffffffff1661330a9092919063ffffffff16565b6120fa826001015f9054906101000a900473ffffffffffffffffffffffffffffffffffffffff1683600201548373ffffffffffffffffffffffffffffffffffffffff1661330a9092919063ffffffff16565b60018260010160146101000a81548160ff021916908315150217905550826003015460085f856001015481526020019081526020015f206002015f8282546121429190614c73565b925050819055505f600a5f856006015f015f9054906101000a900473ffffffffffffffffffffffffffffffffffffffff1673ffffffffffffffffffffffffffffffffffffffff1673ffffffffffffffffffffffffffffffffffffffff1681526020019081526020015f20805490500361223b57600e836006015f015f9054906101000a900473ffffffffffffffffffffffffffffffffffffffff16908060018154018082558091505060019003905f5260205f20015f9091909190916101000a81548173ffffffffffffffffffffffffffffffffffffffff021916908373ffffffffffffffffffffffffffffffffffffffff1602179055505b5f600a5f85600b015f015f9054906101000a900473ffffffffffffffffffffffffffffffffffffffff1673ffffffffffffffffffffffffffffffffffffffff1673ffffffffffffffffffffffffffffffffffffffff1681526020019081526020015f20805490500361232d57600e83600b015f015f9054906101000a900473ffffffffffffffffffffffffffffffffffffffff16908060018154018082558091505060019003905f5260205f20015f9091909190916101000a81548173ffffffffffffffffffffffffffffffffffffffff021916908373ffffffffffffffffffffffffffffffffffffffff1602179055505b600a5f836001015f9054906101000a900473ffffffffffffffffffffffffffffffffffffffff1673ffffffffffffffffffffffffffffffffffffffff1673ffffffffffffffffffffffffffffffffffffffff1681526020019081526020015f2084908060018154018082558091505060019003905f5260205f20015f90919091909150556123bc600d85613389565b6123dd60085f856001015481526020019081526020015f2060040185613389565b5f600b5f8681526020019081526020015f205f6101000a81548160ff02191690831515021790555060095f8581526020019081526020015f205f5f82015f9055600182015f9055600282015f6101000a81549060ff02191690556002820160016101000a81549060ff0219169055600382015f9055600482015f9055600582015f9055600682015f5f82015f6101000a81549073ffffffffffffffffffffffffffffffffffffffff02191690555f820160146101000a81549060ff02191690555f820160156101000a81549060ff0219169055600182015f9055600282015f9055600382015f9055600482015f90555050600b82015f5f82015f6101000a81549073ffffffffffffffffffffffffffffffffffffffff02191690555f820160146101000a81549060ff02191690555f820160156101000a81549060ff0219169055600182015f9055600282015f9055600382015f9055600482015f90555050505060055f8581526020019081526020015f205f5f82015f6101000a81549073ffffffffffffffffffffffffffffffffffffffff0219169055600182015f6101000a81549073ffffffffffffffffffffffffffffffffffffffff02191690556001820160146101000a81549060ff0219169055600282015f9055600382015f9055600482015f90555050816001015f9054906101000a900473ffffffffffffffffffffffffffffffffffffffff1673ffffffffffffffffffffffffffffffffffffffff16847f8b532e8544aaba4081e6679ce58881ffd75103cdb593e8478f0fb9126ea5794484600201548560030154866004015460405161264093929190614ca6565b60405180910390a3505050612653613062565b50565b6009602052805f5260405f205f91509050805f015490806001015490806002015f9054906101000a900460ff16908060020160019054906101000a900460ff1690806003015490806004015490806005015490806006016040518060e00160405290815f82015f9054906101000a900473ffffffffffffffffffffffffffffffffffffffff1673ffffffffffffffffffffffffffffffffffffffff1673ffffffffffffffffffffffffffffffffffffffff1681526020015f820160149054906101000a900460ff161515151581526020015f820160159054906101000a900460ff161515151581526020016001820154815260200160028201548152602001600382015481526020016004820154815250509080600b016040518060e00160405290815f82015f9054906101000a900473ffffffffffffffffffffffffffffffffffffffff1673ffffffffffffffffffffffffffffffffffffffff1673ffffffffffffffffffffffffffffffffffffffff1681526020015f820160149054906101000a900460ff161515151581526020015f820160159054906101000a900460ff16151515158152602001600182015481526020016002820154815260200160038201548152602001600482015481525050905089565b612835612f59565b61283d612f9a565b5f60095f8581526020019081526020015f209050806002015f9054906101000a900460ff16612898576040517fab291b7e00000000000000000000000000000000000000000000000000000000815260040160405180910390fd5b3373ffffffffffffffffffffffffffffffffffffffff16816006015f015f9054906101000a900473ffffffffffffffffffffffffffffffffffffffff1673ffffffffffffffffffffffffffffffffffffffff1603612922576040517f706cd38100000000000000000000000000000000000000000000000000000000815260040160405180910390fd5b8060030154831461295f576040517f55e97b0d00000000000000000000000000000000000000000000000000000000815260040160405180910390fd5b806006015f0160159054906101000a900460ff161515821515036129af576040517fb91b3f1e00000000000000000000000000000000000000000000000000000000815260040160405180910390fd5b5f60085f836001015481526020019081526020015f2090506040518060e001604052803373ffffffffffffffffffffffffffffffffffffffff1681526020015f1515815260200184151581526020018681526020018581526020014281526020015f81525082600b015f820151815f015f6101000a81548173ffffffffffffffffffffffffffffffffffffffff021916908373ffffffffffffffffffffffffffffffffffffffff1602179055506020820151815f0160146101000a81548160ff0219169083151502179055506040820151815f0160156101000a81548160ff021916908315150217905550606082015181600101556080820151816002015560a0820151816003015560c082015181600401559050505f600b5f8781526020019081526020015f205f6101000a81548160ff021916908315150217905550612b3c333086845f015f9054906101000a900473ffffffffffffffffffffffffffffffffffffffff1673ffffffffffffffffffffffffffffffffffffffff16612fe0909392919063ffffffff16565b5f1515600f60149054906101000a900460ff16151503612bd5575f600143612b649190614cdb565b4044423033604051602001612b7d959493929190614d2e565b604051602081830303815290604052805190602001205f1c9050857f98323e33bc986e61ec701a67f46e1071fcf7f175d531d954b28f705869cf69f660405160405180910390a2612bcf8682866134a4565b50612c27565b5f612bdf5f6138bf565b90508560075f8381526020019081526020015f208190555085817fa5cfcd9975444edc9ad8e9e293b6531c6f61c39d1d7a87d60e90e361ce2f8b4660405160405180910390a3505b3373ffffffffffffffffffffffffffffffffffffffff16857fa19ca1a746ff10803168821ae3f7035a09457badacd538b792bb1969db69b44486604051612c6e919061475b565b60405180910390a35050612c80613062565b505050565b606481565b600b602052805f5260405f205f915054906101000a900460ff1681565b612caf61306b565b612cb7612f59565b61dead73ffffffffffffffffffffffffffffffffffffffff168173ffffffffffffffffffffffffffffffffffffffff1603612d1e576040517f14bcf5c800000000000000000000000000000000000000000000000000000000815260040160405180910390fd5b80600f5f6101000a81548173ffffffffffffffffffffffffffffffffffffffff021916908373ffffffffffffffffffffffffffffffffffffffff1602179055507f7dae230f18360d76a040c81f050aa14eb9d6dc7901b20fc5d855e2a20fe814d181604051612d8d9190614154565b60405180910390a150565b612da061306b565b612da981613b0a565b50565b612db461306b565b612dbc612f59565b5f73ffffffffffffffffffffffffffffffffffffffff168273ffffffffffffffffffffffffffffffffffffffff1603612e21576040517f14f28f2b00000000000000000000000000000000000000000000000000000000815260040160405180910390fd5b5f8290505f8173ffffffffffffffffffffffffffffffffffffffff166370a08231306040518263ffffffff1660e01b8152600401612e5f9190614154565b602060405180830381865afa158015612e7a573d5f5f3e3d5ffd5b505050506040513d601f19601f82011682018060405250810190612e9e9190614da0565b905080831115612eda576040517fad3a8b9e00000000000000000000000000000000000000000000000000000000815260040160405180910390fd5b612f0533848473ffffffffffffffffffffffffffffffffffffffff1661330a9092919063ffffffff16565b7f9b1bfa7fa9ee420a16e124f794c35ac9f90472acc99140eb2f6447c714cad8eb843385604051612f3893929190614dcb565b60405180910390a150505050565b600f60149054906101000a900460ff1681565b612f616112b9565b15612f98576040517fd93c066500000000000000000000000000000000000000000000000000000000815260040160405180910390fd5b565b600260015403612fd6576040517f3ee5aeb500000000000000000000000000000000000000000000000000000000815260040160405180910390fd5b6002600181905550565b61305c848573ffffffffffffffffffffffffffffffffffffffff166323b872dd86868660405160240161301593929190614dcb565b604051602081830303815290604052915060e01b6020820180517bffffffffffffffffffffffffffffffffffffffffffffffffffffffff8381831617835250505050613c36565b50505050565b60018081905550565b60025f9054906101000a900473ffffffffffffffffffffffffffffffffffffffff1673ffffffffffffffffffffffffffffffffffffffff163373ffffffffffffffffffffffffffffffffffffffff16146130fa576040517f08c379a00000000000000000000000000000000000000000000000000000000081526004016130f190614e4a565b60405180910390fd5b565b613104612f9a565b60065f8481526020019081526020015f205f0160019054906101000a900460ff1661315b576040517f4b13b31e00000000000000000000000000000000000000000000000000000000815260040160405180910390fd5b600160065f8581526020019081526020015f205f015f6101000a81548160ff021916908315150217905550818160065f8681526020019081526020015f2060010191906131a9929190613e00565b50827ffe2e2d779dba245964d4e3ef9b994be63856fd568bf7d3ca9e224755cb1bd54d83836040516131dc929190614ee0565b60405180910390a25f60075f8581526020019081526020015f205490506132408184845f8181106132105761320f614b72565b5b9050602002013560095f8581526020019081526020015f20600b015f0160159054906101000a900460ff166134a4565b60075f8581526020019081526020015f205f905560065f8581526020019081526020015f205f5f82015f6101000a81549060ff02191690555f820160016101000a81549060ff0219169055600182015f61329a9190613e4b565b5050506132a5613062565b505050565b6132b2613cd1565b5f5f5f6101000a81548160ff0219169083151502179055507f5db9ee0a495bf2e6ff9c91a7834c1ba4fdd244a5e8aa4e537bd38aeae4b073aa6132f3613d11565b6040516133009190614154565b60405180910390a1565b613384838473ffffffffffffffffffffffffffffffffffffffff1663a9059cbb858560405160240161333d929190614f02565b604051602081830303815290604052915060e01b6020820180517bffffffffffffffffffffffffffffffffffffffffffffffffffffffff8381831617835250505050613c36565b505050565b5f828054905090505f5f90505b8181101561343d57828482815481106133b2576133b1614b72565b5b905f5260205f2001540361343057836001836133ce9190614cdb565b815481106133df576133de614b72565b5b905f5260205f2001548482815481106133fb576133fa614b72565b5b905f5260205f2001819055508380548061341857613417614f29565b5b600190038181905f5260205f20015f9055905561343d565b8080600101915050613396565b50505050565b61344b612f59565b60015f5f6101000a81548160ff0219169083151502179055507f62e78cea01bee320cd4e420270b5ea74000d11b0c9f74754ebdbfc544b05a25861348d613d11565b60405161349a9190614154565b60405180910390a1565b5f60095f8581526020019081526020015f209050806002015f9054906101000a900460ff166134ff576040517fc596169500000000000000000000000000000000000000000000000000000000815260040160405180910390fd5b5f816002015f6101000a81548160ff0219169083151502179055505f60085f836001015481526020019081526020015f2090505f826003015490505f6064835f0160159054906101000a900460ff1660ff168361355c9190614f56565b6135669190614fc4565b90505f6064845f0160169054906101000a900460ff1660ff168461358a9190614f56565b6135949190614fc4565b90505f81836002866135a69190614f56565b6135b09190614cdb565b6135ba9190614cdb565b90505f6001808a161490505f8815158215151490505f8161360057886006015f015f9054906101000a900473ffffffffffffffffffffffffffffffffffffffff16613627565b88600b015f015f9054906101000a900473ffffffffffffffffffffffffffffffffffffffff165b905081158960020160016101000a81548160ff0219169083151502179055504289600501819055506040518060c00160405280895f015f9054906101000a900473ffffffffffffffffffffffffffffffffffffffff1673ffffffffffffffffffffffffffffffffffffffff1681526020018273ffffffffffffffffffffffffffffffffffffffff1681526020015f151581526020018581526020018781526020018681525060055f8e81526020019081526020015f205f820151815f015f6101000a81548173ffffffffffffffffffffffffffffffffffffffff021916908373ffffffffffffffffffffffffffffffffffffffff1602179055506020820151816001015f6101000a81548173ffffffffffffffffffffffffffffffffffffffff021916908373ffffffffffffffffffffffffffffffffffffffff16021790555060408201518160010160146101000a81548160ff021916908315150217905550606082015181600201556080820151816003015560a082015181600401559050508b7fb85ce83b27ea93209b6283265b3aa834eab6e5505c7d867654f1e089baf424ec8a6006015f015f9054906101000a900473ffffffffffffffffffffffffffffffffffffffff168b600b015f015f9054906101000a900473ffffffffffffffffffffffffffffffffffffffff168a87868f600501548b6040516138329796959493929190614ff4565b60405180910390a28073ffffffffffffffffffffffffffffffffffffffff168c7f28ddb2bffd215d5a00b246944c24df51947bdb3b2c278060cc525fc79c42dfa88a5f015f9054906101000a900473ffffffffffffffffffffffffffffffffffffffff16878a8a6040516138a99493929190615061565b60405180910390a3505050505050505050505050565b5f60045f9054906101000a900473ffffffffffffffffffffffffffffffffffffffff1673ffffffffffffffffffffffffffffffffffffffff16639b1c385e6040518060c001604052807f787d74caea10b2b357790d5b5247c2f63d1d91572a9846f780606e4d953677ae5f1b81526020017f00000000000000000000000000000000000000000000000000000000000000008152602001600361ffff168152602001620493e063ffffffff168152602001600163ffffffff1681526020016139966040518060200160405280881515815250613d18565b8152506040518263ffffffff1660e01b81526004016139b591906151b8565b6020604051808303815f875af11580156139d1573d5f5f3e3d5ffd5b505050506040513d601f19601f820116820180604052508101906139f59190614da0565b905060405180606001604052805f151581526020016001151581526020015f67ffffffffffffffff811115613a2d57613a2c614b45565b5b604051908082528060200260200182016040528015613a5b5781602001602082028036833780820191505090505b5081525060065f8381526020019081526020015f205f820151815f015f6101000a81548160ff0219169083151502179055506020820151815f0160016101000a81548160ff0219169083151502179055506040820151816001019080519060200190613ac8929190613e69565b50905050807fcc58b13ad3eab50626c6a6300b1d139cd6ebb1688a7cced9461c2f7e762665ee6001604051613afd91906143a3565b60405180910390a2919050565b3373ffffffffffffffffffffffffffffffffffffffff168173ffffffffffffffffffffffffffffffffffffffff1603613b78576040517f08c379a0000000000000000000000000000000000000000000000000000000008152600401613b6f90615222565b60405180910390fd5b8060035f6101000a81548173ffffffffffffffffffffffffffffffffffffffff021916908373ffffffffffffffffffffffffffffffffffffffff1602179055508073ffffffffffffffffffffffffffffffffffffffff1660025f9054906101000a900473ffffffffffffffffffffffffffffffffffffffff1673ffffffffffffffffffffffffffffffffffffffff167fed8889f560326eb138920d842192f0eb3dd22b4f139c87a2c57538e05bae127860405160405180910390a350565b5f5f60205f8451602086015f885af180613c55576040513d5f823e3d81fd5b3d92505f519150505f8214613c6e576001811415613c89565b5f8473ffffffffffffffffffffffffffffffffffffffff163b145b15613ccb57836040517f5274afe7000000000000000000000000000000000000000000000000000000008152600401613cc29190614154565b60405180910390fd5b50505050565b613cd96112b9565b613d0f576040517f8dfc202b00000000000000000000000000000000000000000000000000000000815260040160405180910390fd5b565b5f33905090565b60607f92fd13387c7fe7befbc38d303d6468778fb9731bc4583f17d92989c6fcfdeaaa82604051602401613d4c919061525a565b604051602081830303815290604052907bffffffffffffffffffffffffffffffffffffffffffffffffffffffff19166020820180517bffffffffffffffffffffffffffffffffffffffffffffffffffffffff83818316178352505050509050919050565b6040518060e001604052805f73ffffffffffffffffffffffffffffffffffffffff1681526020015f151581526020015f151581526020015f81526020015f81526020015f81526020015f81525090565b828054828255905f5260205f20908101928215613e3a579160200282015b82811115613e39578235825591602001919060010190613e1e565b5b509050613e479190613eb4565b5090565b5080545f8255905f5260205f2090810190613e669190613eb4565b50565b828054828255905f5260205f20908101928215613ea3579160200282015b82811115613ea2578251825591602001919060010190613e87565b5b509050613eb09190613eb4565b5090565b5b80821115613ecb575f815f905550600101613eb5565b5090565b5f5ffd5b5f5ffd5b5f819050919050565b613ee981613ed7565b8114613ef3575f5ffd5b50565b5f81359050613f0481613ee0565b92915050565b5f819050919050565b613f1c81613f0a565b8114613f26575f5ffd5b50565b5f81359050613f3781613f13565b92915050565b5f8115159050919050565b613f5181613f3d565b8114613f5b575f5ffd5b50565b5f81359050613f6c81613f48565b92915050565b5f5f5f60608486031215613f8957613f88613ecf565b5b5f613f9686828701613ef6565b9350506020613fa786828701613f29565b9250506040613fb886828701613f5e565b9150509250925092565b5f60ff82169050919050565b613fd781613fc2565b8114613fe1575f5ffd5b50565b5f81359050613ff281613fce565b92915050565b5f5f5f5f608085870312156140105761400f613ecf565b5b5f61401d87828801613ef6565b945050602061402e87828801613fe4565b935050604061403f87828801613fe4565b925050606061405087828801613f29565b91505092959194509250565b5f73ffffffffffffffffffffffffffffffffffffffff82169050919050565b5f6140858261405c565b9050919050565b6140958161407b565b811461409f575f5ffd5b50565b5f813590506140b08161408c565b92915050565b5f5f5f5f608085870312156140ce576140cd613ecf565b5b5f6140db878288016140a2565b94505060206140ec87828801613fe4565b93505060406140fd87828801613fe4565b925050606061410e87828801613f29565b91505092959194509250565b5f6020828403121561412f5761412e613ecf565b5b5f61413c84828501613f29565b91505092915050565b61414e8161407b565b82525050565b5f6020820190506141675f830184614145565b92915050565b61417681613f0a565b82525050565b5f81519050919050565b5f82825260208201905092915050565b5f819050602082019050919050565b6141ae8161407b565b82525050565b5f6141bf83836141a5565b60208301905092915050565b5f602082019050919050565b5f6141e18261417c565b6141eb8185614186565b93506141f683614196565b805f5b8381101561422657815161420d88826141b4565b9750614218836141cb565b9250506001810190506141f9565b5085935050505092915050565b5f6040820190506142465f83018561416d565b818103602083015261425881846141d7565b90509392505050565b5f5ffd5b5f5ffd5b5f5ffd5b5f5f83601f84011261428257614281614261565b5b8235905067ffffffffffffffff81111561429f5761429e614265565b5b6020830191508360208202830111156142bb576142ba614269565b5b9250929050565b5f5f5f604084860312156142d9576142d8613ecf565b5b5f6142e686828701613f29565b935050602084013567ffffffffffffffff81111561430757614306613ed3565b5b6143138682870161426d565b92509250509250925092565b5f5f6040838503121561433557614334613ecf565b5b5f614342858286016140a2565b925050602061435385828601613f29565b9150509250929050565b61436681613ed7565b82525050565b5f60208201905061437f5f83018461435d565b92915050565b5f63ffffffff82169050919050565b61439d81614385565b82525050565b5f6020820190506143b65f830184614394565b92915050565b5f819050919050565b5f6143df6143da6143d58461405c565b6143bc565b61405c565b9050919050565b5f6143f0826143c5565b9050919050565b5f614401826143e6565b9050919050565b614411816143f7565b82525050565b5f60208201905061442a5f830184614408565b92915050565b5f81519050919050565b5f82825260208201905092915050565b5f819050602082019050919050565b61446281613ed7565b82525050565b5f6144738383614459565b60208301905092915050565b5f602082019050919050565b5f61449582614430565b61449f818561443a565b93506144aa8361444a565b805f5b838110156144da5781516144c18882614468565b97506144cc8361447f565b9250506001810190506144ad565b5085935050505092915050565b5f6040820190506144fa5f83018561416d565b818103602083015261450c818461448b565b90509392505050565b5f6020828403121561452a57614529613ecf565b5b5f614537848285016140a2565b91505092915050565b5f6020820190508181035f830152614558818461448b565b905092915050565b5f6020828403121561457557614574613ecf565b5b5f61458284828501613ef6565b91505092915050565b61459481613f3d565b82525050565b6145a381613fc2565b82525050565b5f60e0820190506145bc5f83018a614145565b6145c9602083018961458b565b6145d6604083018861459a565b6145e3606083018761459a565b6145f0608083018661435d565b6145fd60a083018561416d565b61460a60c083018461416d565b98975050505050505050565b5f6020820190506146295f83018461458b565b92915050565b61463881613f3d565b82525050565b61464781613f0a565b82525050565b60e082015f8201516146615f8501826141a5565b506020820151614674602085018261462f565b506040820151614687604085018261462f565b50606082015161469a6060850182614459565b5060808201516146ad608085018261463e565b5060a08201516146c060a085018261463e565b5060c08201516146d360c085018261463e565b50505050565b5f610280820190506146ed5f83018b61435d565b6146fa602083018a61464d565b61470861010083018961464d565b6147166101e083018861458b565b61472461020083018761458b565b61473261022083018661416d565b61474061024083018561416d565b61474e61026083018461416d565b9998505050505050505050565b5f60208201905061476e5f83018461416d565b92915050565b5f61477e826143e6565b9050919050565b61478e81614774565b82525050565b5f6020820190506147a75f830184614785565b92915050565b5f60c0820190506147c05f830189614145565b6147cd6020830188614145565b6147da604083018761458b565b6147e7606083018661416d565b6147f4608083018561416d565b61480160a083018461416d565b979650505050505050565b5f61ffff82169050919050565b6148228161480c565b82525050565b5f60208201905061483b5f830184614819565b92915050565b5f60e0820190506148545f83018a614145565b614861602083018961459a565b61486e604083018861459a565b61487b606083018761416d565b818103608083015261488d818661448b565b905061489c60a083018561416d565b6148a960c083018461458b565b98975050505050505050565b5f6102a0820190506148c95f83018c61435d565b6148d6602083018b61435d565b6148e3604083018a61458b565b6148f0606083018961458b565b6148fd608083018861416d565b61490a60a083018761416d565b61491760c083018661416d565b61492460e083018561464d565b6149326101c083018461464d565b9a9950505050505050505050565b5f81905092915050565b7f4368616c6c656e676500000000000000000000000000000000000000000000005f82015250565b5f61497e600983614940565b91506149898261494a565b600982019050919050565b5f8160601b9050919050565b5f6149aa82614994565b9050919050565b5f6149bb826149a0565b9050919050565b6149d36149ce8261407b565b6149b1565b82525050565b5f819050919050565b6149f36149ee82613f0a565b6149d9565b82525050565b5f614a0382614972565b9150614a0f82856149c2565b601482019150614a1f82846149e2565b6020820191508190509392505050565b7f4e487b71000000000000000000000000000000000000000000000000000000005f52601160045260245ffd5b5f614a6682613fc2565b9150614a7183613fc2565b9250828201905060ff811115614a8a57614a89614a2f565b5b92915050565b5f606082019050614aa35f83018661459a565b614ab0602083018561459a565b614abd604083018461416d565b949350505050565b7f47616d65506f6f6c0000000000000000000000000000000000000000000000005f82015250565b5f614af9600883614940565b9150614b0482614ac5565b600882019050919050565b5f614b1982614aed565b9150614b2582856149c2565b601482019150614b3582846149e2565b6020820191508190509392505050565b7f4e487b71000000000000000000000000000000000000000000000000000000005f52604160045260245ffd5b7f4e487b71000000000000000000000000000000000000000000000000000000005f52603260045260245ffd5b5f604082019050614bb25f830185614145565b614bbf6020830184614145565b9392505050565b5f82825260208201905092915050565b7f4d7573742062652070726f706f736564206f776e6572000000000000000000005f82015250565b5f614c0a601683614bc6565b9150614c1582614bd6565b602082019050919050565b5f6020820190508181035f830152614c3781614bfe565b9050919050565b5f606082019050614c515f830186614145565b614c5e6020830185614145565b614c6b6040830184614145565b949350505050565b5f614c7d82613f0a565b9150614c8883613f0a565b9250828201905080821115614ca057614c9f614a2f565b5b92915050565b5f606082019050614cb95f83018661416d565b614cc6602083018561416d565b614cd3604083018461416d565b949350505050565b5f614ce582613f0a565b9150614cf083613f0a565b9250828203905081811115614d0857614d07614a2f565b5b92915050565b5f819050919050565b614d28614d2382613ed7565b614d0e565b82525050565b5f614d398288614d17565b602082019150614d4982876149e2565b602082019150614d5982866149e2565b602082019150614d6982856149c2565b601482019150614d7982846149c2565b6014820191508190509695505050505050565b5f81519050614d9a81613f13565b92915050565b5f60208284031215614db557614db4613ecf565b5b5f614dc284828501614d8c565b91505092915050565b5f606082019050614dde5f830186614145565b614deb6020830185614145565b614df8604083018461416d565b949350505050565b7f4f6e6c792063616c6c61626c65206279206f776e6572000000000000000000005f82015250565b5f614e34601683614bc6565b9150614e3f82614e00565b602082019050919050565b5f6020820190508181035f830152614e6181614e28565b9050919050565b5f82825260208201905092915050565b5f5ffd5b82818337505050565b5f614e908385614e68565b93507f07ffffffffffffffffffffffffffffffffffffffffffffffffffffffffffffff831115614ec357614ec2614e78565b5b602083029250614ed4838584614e7c565b82840190509392505050565b5f6020820190508181035f830152614ef9818486614e85565b90509392505050565b5f604082019050614f155f830185614145565b614f22602083018461416d565b9392505050565b7f4e487b71000000000000000000000000000000000000000000000000000000005f52603160045260245ffd5b5f614f6082613f0a565b9150614f6b83613f0a565b9250828202614f7981613f0a565b91508282048414831517614f9057614f8f614a2f565b5b5092915050565b7f4e487b71000000000000000000000000000000000000000000000000000000005f52601260045260245ffd5b5f614fce82613f0a565b9150614fd983613f0a565b925082614fe957614fe8614f97565b5b828204905092915050565b5f60e0820190506150075f83018a614145565b6150146020830189614145565b615021604083018861416d565b61502e606083018761458b565b61503b6080830186614145565b61504860a083018561416d565b61505560c083018461416d565b98975050505050505050565b5f6080820190506150745f830187614145565b615081602083018661416d565b61508e604083018561416d565b61509b606083018461416d565b95945050505050565b6150ad8161480c565b82525050565b6150bc81614385565b82525050565b5f81519050919050565b5f82825260208201905092915050565b8281835e5f83830152505050565b5f601f19601f8301169050919050565b5f615104826150c2565b61510e81856150cc565b935061511e8185602086016150dc565b615127816150ea565b840191505092915050565b5f60c083015f8301516151475f860182614459565b50602083015161515a602086018261463e565b50604083015161516d60408601826150a4565b50606083015161518060608601826150b3565b50608083015161519360808601826150b3565b5060a083015184820360a08601526151ab82826150fa565b9150508091505092915050565b5f6020820190508181035f8301526151d08184615132565b905092915050565b7f43616e6e6f74207472616e7366657220746f2073656c660000000000000000005f82015250565b5f61520c601783614bc6565b9150615217826151d8565b602082019050919050565b5f6020820190508181035f83015261523981615200565b9050919050565b602082015f8201516152545f85018261462f565b50505050565b5f60208201905061526d5f830184615240565b9291505056fea2646970667358221220ac8dfc40ad97b13069219ec3c136fe744b651500df1fe684937ff116c9cdd23064736f6c634300081e0033","linkReferences":{}},"methodIdentifiers":{"acceptOwnership()":"79ba5097","allChallengeIds(uint256)":"5127953b","allGameIds(uint256)":"5a5cfc1c","allUserAddresses(uint256)":"12f8a6ab","baseDivider()":"e1b4db71","burnAddress()":"70d5ae05","callbackGasLimit()":"24f74697","cancelChallenge(bytes32)":"7f205caa","challenges(bytes32)":"c1e69b66","claimPayout(bytes32)":"b4c63471","createChallenge(bytes32,uint256,bool)":"000476ba","createGame(address,uint8,uint8,uint256)":"0f23a3c1","enterChallenge(bytes32,uint256,bool)":"d526bb80","gamePools(bytes32)":"520b35a2","getAllUserAddress()":"149440d9","getChallengeIds()":"48696151","getChallengeInfo(bytes32)":"7a514775","getGameIds()":"9f668bba","getGameInfo(bytes32)":"b2c553b2","getUserHistory(address)":"4fb3d3b1","isActiveChallengeId(bytes32)":"ec018d6e","isVRF()":"fba2f442","keyHash()":"61728f39","linktoken()":"2ae7543f","numWords()":"7ccfd7fc","owner()":"8da5cb5b","pause()":"8456cb59","paused()":"5c975abb","payouts(bytes32)":"aeddb905","rawFulfillRandomWords(uint256,uint256[])":"1fe543e3","requestConfirmations()":"b0fb162f","s_subscriptionId()":"8ac00021","s_vrfCoordinator()":"9eccacf6","setCoordinator(address)":"8ea98117","setGameData(bytes32,uint8,uint8,uint256)":"064436a1","setTreasury(address)":"f0f44260","setVRF()":"ad6829cf","transferOwnership(address)":"f2fde38b","treasury()":"61d027b3","unpause()":"3f4ba83a","unsetVRF()":"06559cf7","userHistory(address,uint256)":"22e8b990","withdraw(address,uint256)":"f3fef3a3"},"id":39}